:0300000002016595
:0100030032CA
:03000B00020109E6
:0100130032BA
:01001B0032B2
:0100230032AA
:03002B000201339C
:10002E00C000788500D8FDD00022C000C00179281C
:10003E007868D8FED9FADAF6D001D00022D294121E
:10004E00002EC29422A2E79283A2E69282A2E592A9
:10005E0081A2E4928012004B12002EA2E39283A2A0
:10006E00E29282A2E19281A2E0928012004B22D211
:10007E0093020053C293020053C294C0027A281214
:10008E000038D0027433120082743312008274323C
:10009E001200827428120082740C120082740112F3
:1000AE000082C0027A02120038D00222E493600667
:1000BE0012007DA380F62244404480020082C0E0FC
:1000CE00E8C4540F443012007DE8540F443012003F
:1000DE007DD0E0224243445F636F756E7465723A61
:1000EE002078782000438E08E58954F04401F58984
:1000FE00758CF0758A2CD2A9D28C22C28C758CF09C
:10010E00758A2CD28CB2843275C80075CDBF75CC71
:10011E002843C98075CBBF75CA28E4F530F5314345
:10012E009B80D2CA22C2CFC0E0C0D00530E530706D
:10013E00020531E530B4F41AE531B40115D200E40C
:10014E00F530F531E532309604240180022499D43D
:10015E00F532D0D0D0E03275817F75B10075B20026
:10016E0075B30075B40075AD0075AD001200F312D5
:10017E000116D2AF120087C0E07401141200C7D06E
:10018E00E0C083C082C0E09000E21200BAD0E0D09E
:10019E0082D083D20075320020951CC0027A3212B2
:1001AE000038D0022095103095FDC2CAE4F530F526
:1001BE0031F532D2CA80033000DEC200C0E0740EC8
:1001CE00141200C7D0E0C000A8321200CCD000023A
:0201DE0001A678
:00000001FF
