:03000000020A35BC
:0100030032CA
:03000B00020846A2
:0100130032BA
:01001B0032B2
:0100230032AA
:03002B0002085B6D
:10002E00C000788500D8FDD00022C000C00179281C
:10003E007868D8FED9FADAF6D001D00022D294121E
:10004E00002EC29422A2E79283A2E69282A2E592A9
:10005E0081A2E4928012004B12002EA2E39283A2A0
:10006E00E29282A2E19281A2E0928012004B22D211
:10007E0093020053C293020053C294C0027A281214
:10008E000038D0027433120082743312008274323C
:10009E001200827428120082740C120082740112F3
:1000AE000082C0027A02120038D00222E493600667
:1000BE0012007DA380F62244404480020082C0E0FC
:1000CE00E8C4540F443012007DE8540F443012003F
:0400DE007DD0E022CF
:1000E2000D0A0080003099FDC299F59922E49360CF
:1000F200061200E5A380F622C0E0E8C4540F4430A3
:0E0102001200E5E8540F44301200E5D0E02270
:10011000C0E0C0D0C000C001C002E4F54DF54EF50E
:100120004FF550F5517A20E548A2E779047845E685
:1001300033F608D9FA7905784DE636D4F608D9F9B8
:10014000DAE5D002D001D000D0D0D0E022C0E0C0AB
:10015000D0C000C001C002E4F54DF54EF54FF5509A
:10016000F5517A20E548A2E779047845E633F608A8
:10017000D9FA7905784DC0D0E6243320E70224D09F
:1001800020E30224FDD0D033F608D9EADAD6D00233
:10019000D001D000D0D0D0E022C0E0C0D0C000C09C
:1001A00001C0027A207905C37851E613C0D030E748
:1001B0000224D030E30224FDF618D0D0D9EC790423
:1001C0007848E613F618D9FADADBD002D001D0006D
:1001D000D0D0D0E022C0E0C0D0E5452549F545E5C6
:1001E00046354AF546E547354BF547E548354CF584
:1001F00048D0D0D0E022C0E0C0D0C3E5459549F555
:1002000045E546954AF546E547954BF547E548955A
:100210004CF548D0D0D0E022C0E0C0D0C3E5459531
:1002200049E546954AE547954BE548954C9200D0FF
:10023000D0D0E022C0E0C0D0C3E5499545E54A955D
:1002400046E54B9547E54C95489200D0D0D0E0224A
:10025000C0E0C0D0C200C3E54995457014E54A9599
:1002600046700EE54B95477008E54C95487002D2F4
:1002700000D0D0D0E022120250200003020234222B
:1002800012025020000302021822C0E0C0F0C0D0C9
:10029000C000C001C002C003E5458549F0A4F8A92B
:1002A000F0E5468549F0A429F9E435F0FAE54585FD
:1002B0004AF0A429F9E5F03AFAE433FBE547854929
:1002C000F0A42AFAE5F03BFBE546854AF0A42AFAB9
:1002D000E5F03BFBE545854BF0A42AFAE5F03BFB56
:1002E000E5488549F0A42BFBE547854AF0A42BFBA4
:1002F000E546854BF0A42BFBE545854CF0A42BFB94
:100300008B488A4789468845D003D002D001D00067
:10031000D0D0D0F0D0E022C0E0C0D0C000C001C03A
:1003200002C003C0047C20E4F8F9FAFBC3E54533BE
:10033000F545E54633F546E54733F547E54833F5FA
:1003400048E833F8E933F9EA33FAEB33FBC3E895CD
:1003500049E9954AEA954BEB954C4013E89549F8E5
:10036000E9954AF9EA954BFAEB954CFB434501DCDC
:10037000BBD004D003D002D001D000D0D0D0E02236
:10038000C2EFD2EE30EFFDE5C2540FF8E5C3C4C0B2
:10039000E0540FF9D0E054F048F822754500754656
:1003A000007547007548007C647D32120380754CEF
:1003B00000754B00894A88491201D5DDEEDCEA75EB
:1003C0004988754A13754B00754C00120317A845F0
:1003D000A9462253E8F043E80012039B8856895748
:1003E0002288458946754700754800754904754A55
:1003F00051754B00754C0012028A85564985574A43
:10040000754B00754C001203172253E8F043E801C6
:1004100012039B1203E17549A4754A6A754B007576
:100420004C001201F675490A754A00754B00754C6F
:100430000012028A85455885465985475A85485B8A
:100440002253E8F043E80712039B1203E112011064
:10045000855064854F63854E62854D617549E875A9
:100460004A03754B00754C0012028A754988754A1B
:1004700030754B00754C00120317754964754A00BE
:10048000754B00754C0012028A85485F85475E8572
:10049000465D85455C22855B48855A47855946857A
:1004A0005845855F4C855E4B855D4A855C491201E8
:1004B000D57549E8754A03754B00754C0012031752
:1004C0008545607561007562007563002285584539
:1004D000855946855A47855B4812011022855C453F
:1004E000855D46855E47855F48120110221204CD66
:1004F000C0E0740A141200C7D0E0C000A850120077
:10050000CCD000C000A84F1200CCD000C000A84E34
:100510001200CCD000C000A84D1200CCD000221296
:1005200004DDC0E07401141200C5D0E0C000A85082
:100530001200CCD000C000A84F1200CCD000C000E8
:10054000A84E1200CCD000C000A84D1200CCD000A4
:1005500022C0E07401141200C7D0E0C000A85512F8
:1005600000CCD000C000A8541200CCD000C000A81D
:10057000531200CCD000C000A8521200CCD00022F0
:10058000E561C0E07401141200C7D0E0C000A864A7
:100590001200CCD000C000A8631200CCD000C00074
:1005A000A8621200CCD000C000A8611200CCD0001C
:1005B00022853E45754600754700754800120110BA
:1005C000C0E07402141200C5D0E0C000A84E1200B2
:1005D000CCD000C000A84D1200CCD00022853F45F1
:1005E000754600754700754800120110C0E0740A96
:1005F000141200C5D0E0C000A84E1200CCD000C03C
:1006000000A84D1200CCD00022C000A8551200FA5C
:10061000D000C000A8541200FAD000C000A85312A5
:1006200000FAD000C000A8521200FAD0009000E2F8
:100630001200EF22856045856146856247856348E3
:10064000120110855055854F54854E53854D5222C9
:100650001203D312040A1204411204961206342221
:10066000E560994004C2018002D20122E560A93D03
:0C067000994004C2028004D202800022E3
:10067C00E531B53B07E532B53C02C295E531B4E74F
:10068C0007E532B40302D29522C29522D295227587
:06069C003BC8753C002282
:1006A200C0E0740F141200C7D0E0200102800AC01B
:1006B200E0743112007DD0E022C0E0743012007D7F
:1006C200D0E022C0E07410141200C7D0E020020271
:1006D200800AC0E0743112007DD0E022C0E07430A4
:1006E20012007DD0E022C0E0740F141200C5D0E0E9
:1006F200200302800AC0E0743112007DD0E022C0E3
:10070200E0743012007DD0E022546F3D20787843AF
:100712002020546A3D7878432000737878782E3010
:0B0722003020727878782E30302000F4
:10072D0054633D00546A3D00C0E07401141200C7CB
:10073D00D0E0C000A8301200CCD0001204ED12059C
:10074D00511205DD1205B1C0E07401141200C7D0BD
:10075D00E0C083C082C0E090072D1200BAD0E0D077
:10076D0082D083C0E0740A141200C7D0E0C083C0E9
:10077D0082C0E09007311200BAD0E0D082D083C0A1
:10078D00E07401141200C5D0E0C0E0747312007D56
:10079D00D0E0C0E07405141200C5D0E0C0E0747262
:1007AD0012007DD0E0221204ED12051F1205512218
:1007BD0020921B1208B42092153092FD309009E55D
:1007CD003E240AF53E0207DBE53F240AF53F20965D
:1007DD001B1208B42096153096FD309009E53E2485
:1007ED0001F53E0207F9E53F2401F53FE53F953E52
:1007FD005004E53FF53E22753002753D32753E9150
:10080D00753FD975560075570075580075590075A7
:10081D005C00755D00753600753800753B00753CE4
:10082D0000753500753300753400C295D284D292AF
:10083D00D296D290C201C20222C0E0C0D0C28C7545
:10084D008CF0758A2CD28CB285D0D0D0E032C2CF4C
:10085D00C0E0C0D00531E53170020532E539B40193
:10086D000312067CE531B4E839E532B403341206DF
:10087D0009E4F531F532B28CE5362401D4F536F5BF
:10088D0036B5381EE539B40119E530B4010F12063D
:10089D006C30020E7530007536000208AF753600EB
:1008AD000530D0D0D0E0327A0679C87868D8FED934
:1008BD00FADAF622E530B400061208FF0208FEE56A
:1008CD0030B4010612091D0208FEE530B40206120D
:1008DD0009340208FEE530B4030612094A0208FE87
:1008ED00E530B404061209640208FE12096B020811
:1008FD00FE227539001206951207BD2084111208CB
:10090D00B420840B3084FD75360075380605302211
:10091D00753901120698A93E120660200108753638
:10092D000075380605302212069B75390120840C9E
:10093D001208B42084063084FD7539002212069801
:10094D00753900A93F12066020010B753901753606
:10095D000075380705302212069B753901221206E3
:10096D0095753900793C120660300108C201753069
:10097D00007536002275AC0075AD0075B30075B409
:10098D000075B10075B200C0E07401141200C7D03B
:10099D00E0C083C082C0E090070B1200BAD0E0D057
:1009AD0082D083C0E07401141200C5D0E0C083C0B2
:1009BD0082C0E090071C1200BAD0E0D082D0831222
:1009CD00080479C87868D8FED9FA438E08E58954A9
:1009DD00F04401F589758CF0758A2CD2A9D28C431F
:1009ED008E1043878075985253C4DF53890F438906
:1009FD0020758DF7D28E43B38253B47D43AC025331
:100A0D00ADFD75F60043F68343E10175C80075CD64
:100A1D00BF75CC2843C98075CBBF75CA28E4F531A5
:100A2D00F532439B80D2CA2275817FD2AF120982E3
:0F0A3D001200871206501207B31208C1020A40B6
:00000001FF
