:03000000020BD11F
:0100030032CA
:03000B000209DD0A
:0100130032BA
:01001B0032B2
:0100230032AA
:09002B000209F253540052540082
:10003400C000788500D8FDD00022C000C001792816
:100044007868D8FED9FADAF6D001D00022D2941218
:100054000034C29422A2E79283A2E69282A2E5929D
:1000640081A2E49280120051120034A2E39283A28E
:10007400E29282A2E19281A2E0928012005122D205
:1000840093020059C293020059C294C0027A281202
:10009400003ED00274331200887433120088743224
:1000A4001200887428120088740C120088740112DB
:1000B4000088C0027A0212003ED00222E493600655
:1000C400120083A380F62244404480020088C0E0EA
:1000D400E8C4540F4430120083E8540F4430120033
:0400E40083D0E022C3
:1000E8000D0A0080003099FDC299F59922E49360C9
:1000F800061200EBA380F622C0E0E8C4540F443097
:100108001200EBE8540F44301200EBD0E022200537
:1001180003020132C20574531200EBC000A830126A
:0B0128000100D0009000E81200F5225A
:10013300C0E0C0D0C000C001C002E4F54DF54EF5EB
:100143004FF550F5517A20E548A2E779047845E662
:1001530033F608D9FA7905784DE636D4F608D9F995
:10016300DAE5D002D001D000D0D0D0E022C0E0C088
:10017300D0C000C001C002E4F54DF54EF54FF55077
:10018300F5517A20E548A2E779047845E633F60885
:10019300D9FA7905784DC0D0E6243320E70224D07C
:1001A30020E30224FDD0D033F608D9EADAD6D00210
:1001B300D001D000D0D0D0E022C0E0C0D0C000C079
:1001C30001C0027A207905C37851E613C0D030E725
:1001D3000224D030E30224FDF618D0D0D9EC790400
:1001E3007848E613F618D9FADADBD002D001D0004A
:1001F300D0D0D0E022C0E0C0D0E5452549F545E5A3
:1002030046354AF546E547354BF547E548354CF560
:1002130048D0D0D0E022C0E0C0D0C3E5459549F531
:1002230045E546954AF546E547954BF547E5489537
:100233004CF548D0D0D0E022C0E0C0D0C3E545950E
:1002430049E546954AE547954BE548954C9200D0DC
:10025300D0D0E022C0E0C0D0C3E5499545E54A953A
:1002630046E54B9547E54C95489200D0D0D0E02227
:10027300C0E0C0D0C200C3E54995457014E54A9576
:1002830046700EE54B95477008E54C95487002D2D1
:1002930000D0D0D0E02212027320000302025722C2
:1002A30012027320000302023B22C0E0C0F0C0D060
:1002B300C000C001C002C003E5458549F0A4F8A908
:1002C300F0E5468549F0A429F9E435F0FAE54585DA
:1002D3004AF0A429F9E5F03AFAE433FBE547854906
:1002E300F0A42AFAE5F03BFBE546854AF0A42AFA96
:1002F300E5F03BFBE545854BF0A42AFAE5F03BFB33
:10030300E5488549F0A42BFBE547854AF0A42BFB80
:10031300E546854BF0A42BFBE545854CF0A42BFB70
:100323008B488A4789468845D003D002D001D00044
:10033300D0D0D0F0D0E022C0E0C0D0C000C001C017
:1003430002C003C0047C20E4F8F9FAFBC3E545339B
:10035300F545E54633F546E54733F547E54833F5D7
:1003630048E833F8E933F9EA33FAEB33FBC3E895AA
:1003730049E9954AEA954BEB954C4013E89549F8C2
:10038300E9954AF9EA954BFAEB954CFB434501DCB9
:10039300BBD004D003D002D001D000D0D0D0E02213
:1003A300C2EFD2EE30EFFDE5C2540FF8E5C3C4C08F
:1003B300E0540FF9D0E054F048F822754500754633
:1003C300007547007548007C647D321203A3754CA9
:1003D30000754B00894A88491201F8DDEEDCEA75A5
:1003E3004988754A13754B00754C0012033AA845AA
:1003F300A9462253E8F043E8001203BE885A895BFA
:100403002288458946754700754800754904754A31
:1004130051754B00754C001202AD855A49855B4AF4
:10042300754B00754C0012033A2253E8F043E80180
:100433001203BE1204047549A4754A6A754B00750C
:100443004C0012021975490A754A00754B00754C28
:10045300001202AD85455C85465D85475E85485F34
:100463002253E8F043E8071203BE120404120133D7
:10047300855059854F58854E57854D567549E875B2
:100483004A03754B00754C001202AD754988754AD5
:1004930030754B00754C0012033A754964754A0078
:1004A300754B00754C001202AD8548638547628524
:1004B300466185456022855F48855E47855D468543
:1004C3005C4585634C85624B85614A8560491201B1
:1004D300F87549E8754A03754B00754C0012033AE9
:1004E300E5459402F56422855C45855D46855E4756
:1004F300855F4812013322856045856146856247E1
:10050300856348120133221204EAC0E0740C14120A
:1005130000CDD0E0C000A84F1200D2D000C000A888
:100523004E1200D2D000221204FAC0E07401141259
:1005330000CBD0E0C000A84F1200D2D000C000A86A
:100543004E1200D2D00022E564C39464401DC0E083
:100553007403141200CDD0E0C000A8531200D2D00F
:1005630000C000A8521200D2D00022C0E0740414CC
:100573001200CDD0E0C0E07420120083D0E0C000B0
:10058300A8521200D2D00022E556C0E07401141222
:1005930000CDD0E0C000A8591200D2D000C000A8FE
:1005A300581200D2D000C000A8571200D2D000C009
:1005B30000A8561200D2D00022853E45754600752C
:1005C3004700754800120133C0E07401141200CBD8
:1005D300D0E0C000A84E1200D2D000C000A84D1237
:1005E30000D2D00022853F45754600754700754807
:1005F30000120133C0E07407141200CBD0E0C00036
:10060300A84E1200D2D000C000A84D1200D2D000D4
:1006130022C000A853120100D000C000A85212014A
:1006230000D0009000E81200F5228564457546006D
:10063300754700754800120133854E53854D52228C
:100643001203F612042D1204641204B912062D22A9
:10065300E564994004C2018002D20122E564A93D08
:0C066300994004C2028004D202800022F0
:10066F00E531B53B07E532B53C02C295E531B4E75C
:10067F0007E532B40302D29522C29522D295227594
:06068F003B2C753C01222A
:10069500C0E0740F141200CDD0E0200102800AC022
:1006A500E07431120083D0E022C0E0743012008380
:1006B500D0E022C0E07410141200CDD0E020020278
:1006C500800AC0E07431120083D0E022C0E07430AB
:1006D500120083D0E022C0E0740F141200CBD0E0EA
:1006E500200302800AC0E07431120083D0E022C0EA
:1006F500E07430120083D0E022546F3D20787843B7
:100705002020546A3D7878432000737878782E301D
:0B0715003020727878782E3030200001
:10072000546F3D00432020546A3D0012050A120513
:100730004AC0E07401141200CDD0E0C083C082C072
:10074000E09007201200C0D0E0D082D083C0E074D7
:1007500007141200CDD0E0C083C082C0E09007240F
:100760001200C0D0E0D082D083C0E0740F14120019
:10077000CDD0E0C0E07443120083D0E01205E8124F
:1007800005BCC0E07401141200CBD0E0C0E074538B
:10079000120083D0E0C0E07407141200CBD0E0C098
:1007A000E07452120083D0E0C0E07405141200CB54
:1007B000D0E0C0E07443120083D0E0C0E0740B14BA
:1007C0001200CBD0E0C0E07443120083D0E0C0E060
:1007D000740F141200CBD0E0C000A8301200D2D0A9
:1007E00000300D15C0E0740D141200CBD0E0C0E055
:1007F0007452120083D0E08013C0E0740D14120014
:10080000CBD0E0C0E07453120083D0E02212050A7E
:1008100012054AC0E07401141200CDD0E0C000A857
:10082000301200D2D000C0E07401141200CBD0E02E
:10083000C000A8361200D2D000C0E0740514120027
:10084000CBD0E0C000A8381200D2D00022D208D20B
:1008500009D20AD20BD20CD296C293C280C281C2F4
:1008600082C283209638120A53209632D293D280C5
:10087000D281D282D283C293A2969208D293C280AE
:10088000A2969209D280C281A296920AD281C28295
:10089000A296920BD282C283A296920CD28322207D
:1008A000060302091BD208D209D20AD20BD20CD2FB
:1008B00096C293C280C281C282C28320965D120A10
:1008C00053209657D293D280D281D282D283C293C0
:1008D000A2969208D293200809E53F240AF53F0228
:1008E000091BC280A2969209D280200909E53F2403
:1008F00001F53F02091BC281A296920AD281200A09
:1009000009E53F940AF53F02091BC282A296920BA9
:10091000D282200B06E53F9401F53F222006030218
:100920000998D208D209D20AD20BD20CD296C2931D
:10093000C280C281C282C28320965D120A53209671
:1009400057D293D280D281D282D283C293A296927E
:1009500008D293200809E53E240AF53E020998C210
:1009600080A2969209D280200909E53E2401F53E35
:10097000020998C281A296920AD281200A09E53E14
:10098000940AF53E020998C282A296920BD2822066
:100990000B06E53E9401F53E22753000753D32753B
:1009A0003E91753FD9755A00755B00755C00755DA9
:1009B00000756000756100753600753800753B0084
:1009C000753C00753500753300753400C295D284CE
:1009D000D293D280C283C20DC201C20222C0E0C043
:1009E000D0C28C758CF0758A2CD28CB285D0D0D0C8
:1009F000E032C2CFC0E0C0D00531E531700205322F
:100A0000E539B4010312066FE531B4E841E532B4CB
:100A1000033CD206D207120614E4F531F532B28C4B
:100A2000E5362401D4F536F536B53822E539B4017A
:100A30001DE530B4011112065F30021275300075E9
:100A40003600D205020A4E753600D2050530D0D0E8
:100A5000D0E0327A0679C87868D8FED9FADAF62278
:100A6000E530B40006120A9E020A9DE530B4010684
:100A7000120ABE020A9DE530B40206120AD7020A23
:100A80009DE530B40306120ADE020A9DE530B40487
:100A900006120AFA020A9D120B01020A9D227539FA
:100AA0000012068812084D208413120A5320840D68
:100AB0003084FD7536007538600530D205227539F1
:100AC0000112068BA93E12065320010A75360075E5
:100AD00038900530D2052212068E75390122120691
:100AE0008B753900A93F12065320010D7539017528
:100AF00036007538600530D2052212068E75390130
:100B000022120688753900793C12065330010AC258
:100B100001753000753600D2052275AC0075AD0048
:100B200075B30075B40075B10075B200D206D20776
:100B3000C0E07401141200CDD0E0C083C082C0E0D8
:100B40009006FE1200C0D0E0D082D083C0E07401D5
:100B5000141200CBD0E0C083C082C0E090070F1217
:100B600000C0D0E0D082D08312099979C87868D8C3
:100B7000FED9FA438E08E58954F04401F589758C55
:100B8000F0758A2CD2A9D28C438E10438780759839
:100B90005253C4DF53890F438920758DF7D28E439A
:100BA000B38253B47D43AC0253ADFD75F60043F6FA
:100BB0008343E10175C80075CDBF75CC2843C9805A
:100BC00075CBBF75CA28E4F531F532439B80D2CA94
:100BD0002275817FD2AF120B1A12008D12064312BA
:100BE000072B120A60120116C205200C05300602FE
:100BF000B20D300D0612089F020BFE12091CC20630
:100C0000E530601030070D20840AC207D205753028
:070C1000003084FD020BDC43
:00000001FF
