:03000000020726CE
:0100030032CA
:01000B0032C2
:0100130032BA
:01001B0032B2
:0100230032AA
:03002B00020522A9
:10002E00C000788500D8FDD00022C000C00179281C
:10003E007868D8FED9FADAF6D001D00022D294121E
:10004E00002EC29422A2E79283A2E69282A2E592A9
:10005E0081A2E4928012004B12002EA2E39283A2A0
:10006E00E29282A2E19281A2E0928012004B22D211
:10007E0093020053C293020053C294C0027A281214
:10008E000038D0027433120082743312008274323C
:10009E001200827428120082740C120082740112F3
:1000AE000082C0027A02120038D00222E493600667
:1000BE0012007DA380F62244404480020082C0E0FC
:1000CE00E8C4540F443012007DE8540F443012003F
:0400DE007DD0E022CF
:1000E2000D0A0080003099FDC299F59922E49360CF
:1000F200061200E5A380F622C0E0E8C4540F4430A3
:100102001200E5E8540F44301200E5D0E022C000AE
:10011200A84C1200FAD000C000A84B1200FAD0007E
:10012200C000A84A1200FAD0009000E21200EF22AA
:10013200C0E0C0D0C000C001C002E4F54AF54BF5F2
:100142004CF54DF54E7A20E545A2E779047842E672
:1001520033F608D9FA7905784AE636D4F608D9F999
:10016200DAE5D002D001D000D0D0D0E022C0E0C089
:10017200D0C000C001C002E4F54AF54BF54CF54D84
:10018200F54E7A20E545A2E779047842E633F6088F
:10019200D9FA7905784AC0D0E6243320E70224D080
:1001A20020E30224FDD0D033F608D9EADAD6D00211
:1001B200D001D000D0D0D0E022C0E0C0D0C000C07A
:1001C20001C0027A207905C3784EE613C0D030E729
:1001D2000224D030E30224FDF618D0D0D9EC790401
:1001E2007845E613F618D9FADADBD002D001D0004E
:1001F200D0D0D0E022C0E0C0D0E5422546F542E5AD
:10020200433547F543E5443548F544E5453549F579
:1002120045D0D0D0E022C0E0C0D0C3E5429546F53B
:1002220042E5439547F543E5449548F544E5459550
:1002320049F545D0D0D0E022C0E0C0D0C3E5429518
:1002420046E5439547E5449548E54595499200D0F2
:10025200D0D0E022C0E0C0D0C3E5469542E5479544
:1002620043E5489544E54995459200D0D0D0E02237
:10027200C0E0C0D0C200C3E54695427014E5479580
:1002820043700EE54895447008E54995457002D2E1
:1002920000D0D0D0E02212027220000302025622C5
:1002A20012027220000302023A22C0E0C0F0C0D063
:1002B200C000C001C002C003E5428546F0A4F8A90F
:1002C200F0E5438546F0A429F9E435F0FAE54285E4
:1002D20047F0A429F9E5F03AFAE433FBE544854610
:1002E200F0A42AFAE5F03BFBE5438547F0A42AFA9D
:1002F200E5F03BFBE5428548F0A42AFAE5F03BFB3A
:10030200E5458546F0A42BFBE5448547F0A42BFB8D
:10031200E5438548F0A42BFBE5428549F0A42BFB7D
:100322008B458A4489438842D003D002D001D00051
:10033200D0D0D0F0D0E022C0E0C0D0C000C001C018
:1003420002C003C0047C20E4F8F9FAFBC3E542339F
:10035200F542E54333F543E54433F544E54533F5EA
:1003620045E833F8E933F9EA33FAEB33FBC3E895AE
:1003720046E99547EA9548EB95494013E89546F8D2
:10038200E99547F9EA9548FAEB9549FB434201DCC6
:10039200BBD004D003D002D001D000D0D0D0E02214
:1003A200C2EFD2EE30EFFDE5C2540FF8E5C3C4C090
:1003B200E0540FF9D0E054F048F82275420075433A
:1003C200007544007545007C647D321203A27549B4
:1003D20000754800894788461201F7DDEEDCEA75B0
:1003E2004688754713754800754900120339A842BB
:1003F200A9432253E8F043E8001203BD884F895015
:100402002288428943754400754500754604754744
:10041200517548007549001202AC854F4685504718
:100422007548007549001203397546A475476A7507
:1004320048007549001202182253E8F043E80112FD
:1004420003BD1204038542518543522253E8F0430F
:10045200E8071203BD1204038542538543542285E3
:100462005142855243754400754500855346855473
:10047200477548007549001201F7754664754700D3
:1004820075480075490012033985425522120461EC
:1004920075450075440075430085554212013212BC
:1004A200011022020731E555984004C2018002D2B0
:1004B2000122C000783A1204A8D00020010280066E
:0704C200C201D202800022FA
:1004C900E531B53807E532B53902D295E531B4E7FA
:1004D90007E532B40302C29522D29522C29522754C
:0604E90038C8753900223D
:1004EF00753000753A32753B96753CD9754F00756E
:1004FF0050007551007552007553007554007533D7
:10050F0000753500753800753900D295D292D20139
:10051F00C20222C2CFC0E0C0D00531E53170020562
:10052F0032E536B401031204C9E531B4E836E532D9
:10053F00B40331E4F531F532E5332401D4F533F565
:10054F0033B53520E536B4011BE530B40111120483
:10055F00B4300210C2027530007533000205737596
:10056F0033000530D0D0D0E032C0E0740114120057
:10057F00C7D0E0C000A8301200CCD000C0E074019A
:10058F00141200C5D0E0C000A8331200CCD000C0B8
:10059F00E07405141200C5D0E0C000A8351200CCDD
:1005AF00D000227A0A79C87868D8FED9FADAF6220A
:1005BF00E530B400061205FD0205FCE530B4010676
:1005CF001206180205FCE530B402061206410205B8
:1005DF00FCE530B403061206570205FCE530B404FF
:1005EF00061206830205FC1206990205FC227536D7
:1005FF00001204E22092111205B220920B3092FDEC
:10060F007533007535600530227536011204E5200B
:10061F00921F1205B22092193092FDC000783B1242
:10062F0004A8D00020010AC20175330075350605F4
:10063F0030221204E875360120920C1205B2209276
:10064F00063092FD753600221204E57536002092B1
:10065F00221205B220921C3092FDC000783C120489
:10066F00A8D00020010DC201753601753300753514
:10067F00070530221204E875360120920C1205B2DC
:10068F002092063092FD753300221204E275360077
:10069F0020921D1205B22092173092FDC000783CB7
:1006AF001204A8D000300108C20175300075330064
:1006BF002275AC0075AD0075B30075B40075B1004F
:1006CF0075B2001204EF79C87868D8FED9FA438E54
:1006DF001043878075985253C4DF53890F43892085
:1006EF00758DF7D28E43B38253B47D43AC0253ADB5
:1006FF00FD75F60043F68343E10175C80075CDBF64
:10070F0075CC2843C98075CBBF75CA28E4F531F580
:10071F0032439B80D2CA2275817F1206C0D2AF129C
:10072F00008712057812073D1205BF020731120329
:10073F00F512043B12044E12048FE531B40008E5A4
:08074F0032B400031201102274
:00000001FF
