:03000000020AE809
:0100030032CA
:03000B00020908DF
:0100130032BA
:01001B0032B2
:0100230032AA
:03002B0002091DAA
:10002E00C000788500D8FDD00022C000C00179281C
:10003E007868D8FED9FADAF6D001D00022D294121E
:10004E00002EC29422A2E79283A2E69282A2E592A9
:10005E0081A2E4928012004B12002EA2E39283A2A0
:10006E00E29282A2E19281A2E0928012004B22D211
:10007E0093020053C293020053C294C0027A281214
:10008E000038D0027433120082743312008274323C
:10009E001200827428120082740C120082740112F3
:1000AE000082C0027A02120038D00222E493600667
:1000BE0012007DA380F62244404480020082C0E0FC
:1000CE00E8C4540F443012007DE8540F443012003F
:0400DE007DD0E022CF
:1000E2000D0A0080003099FDC299F59922E49360CF
:1000F200061200E5A380F622C0E0E8C4540F4430A3
:100102001200E5E8540F44301200E5D0E0227453A7
:100112001200E5C000A8301200FAD0009000E212EE
:0301220000EF22C9
:10012500C0E0C0D0C000C001C002E4F54DF54EF5F9
:100135004FF550F5517A20E548A2E779047845E670
:1001450033F608D9FA7905784DE636D4F608D9F9A3
:10015500DAE5D002D001D000D0D0D0E022C0E0C096
:10016500D0C000C001C002E4F54DF54EF54FF55085
:10017500F5517A20E548A2E779047845E633F60893
:10018500D9FA7905784DC0D0E6243320E70224D08A
:1001950020E30224FDD0D033F608D9EADAD6D0021E
:1001A500D001D000D0D0D0E022C0E0C0D0C000C087
:1001B50001C0027A207905C37851E613C0D030E733
:1001C5000224D030E30224FDF618D0D0D9EC79040E
:1001D5007848E613F618D9FADADBD002D001D00058
:1001E500D0D0D0E022C0E0C0D0E5452549F545E5B1
:1001F50046354AF546E547354BF547E548354CF56F
:1002050048D0D0D0E022C0E0C0D0C3E5459549F53F
:1002150045E546954AF546E547954BF547E5489545
:100225004CF548D0D0D0E022C0E0C0D0C3E545951C
:1002350049E546954AE547954BE548954C9200D0EA
:10024500D0D0E022C0E0C0D0C3E5499545E54A9548
:1002550046E54B9547E54C95489200D0D0D0E02235
:10026500C0E0C0D0C200C3E54995457014E54A9584
:1002750046700EE54B95477008E54C95487002D2DF
:1002850000D0D0D0E02212026520000302024922EC
:1002950012026520000302022D22C0E0C0F0C0D08A
:1002A500C000C001C002C003E5458549F0A4F8A916
:1002B500F0E5468549F0A429F9E435F0FAE54585E8
:1002C5004AF0A429F9E5F03AFAE433FBE547854914
:1002D500F0A42AFAE5F03BFBE546854AF0A42AFAA4
:1002E500E5F03BFBE545854BF0A42AFAE5F03BFB41
:1002F500E5488549F0A42BFBE547854AF0A42BFB8F
:10030500E546854BF0A42BFBE545854CF0A42BFB7E
:100315008B488A4789468845D003D002D001D00052
:10032500D0D0D0F0D0E022C0E0C0D0C000C001C025
:1003350002C003C0047C20E4F8F9FAFBC3E54533A9
:10034500F545E54633F546E54733F547E54833F5E5
:1003550048E833F8E933F9EA33FAEB33FBC3E895B8
:1003650049E9954AEA954BEB954C4013E89549F8D0
:10037500E9954AF9EA954BFAEB954CFB434501DCC7
:10038500BBD004D003D002D001D000D0D0D0E02221
:10039500C2EFD2EE30EFFDE5C2540FF8E5C3C4C09D
:1003A500E0540FF9D0E054F048F822754500754641
:1003B500007547007548007C647D32120395754CC5
:1003C50000754B00894A88491201EADDEEDCEA75C1
:1003D5004988754A13754B00754C0012032CA845C6
:1003E500A9462253E8F043E8001203B0885A895B16
:1003F5002288458946754700754800754904754A40
:1004050051754B00754C0012029F855A49855B4A10
:10041500754B00754C0012032C2253E8F043E8019C
:100425001203B01203F67549A4754A6A754B007537
:100435004C0012020B75490A754A00754B00754C44
:100445000012029F85455C85465D85475E85485F50
:100455002253E8F043E8071203B01203F612012510
:10046500855059854F58854E57854D567549E875C0
:100475004A03754B00754C0012029F754988754AF1
:1004850030754B00754C0012032C754964754A0094
:10049500754B00754C0012029F8548638547628540
:1004A500466185456022855F48855E47855D468551
:1004B5005C4585634C85624B85614A8560491201BF
:1004C500EA7549E8754A03754B00754C0012032C13
:1004D50085456422855C45855D46855E47855F4823
:1004E50012012522856045856146856247856348F9
:1004F500120125221204D9C0E0740C141200C7D0D1
:10050500E0C000A84F1200CCD000C000A84E1200D9
:10051500CCD000221204E9C0E07401141200C5D049
:10052500E0C000A84F1200CCD000C000A84E1200B9
:10053500CCD00022E564C39464401DC0E07404146B
:100545001200C7D0E0C000A8531200CCD000C000F4
:10055500A8521200CCD00022C0E07404141200C7C7
:10056500D0E0C0E0742012007DD0E0C000A8521297
:1005750000CCD00022E556C0E07401141200C7D0AB
:10058500E0C000A8591200CCD000C000A858120045
:10059500CCD000C000A8571200CCD000C000A8568F
:1005A5001200CCD00022853E457546007547007582
:1005B5004800120125C0E07401141200C5D0E0C046
:1005C50000A84E1200CCD000C000A84D1200CCD01F
:1005D5000022853F457546007547007548001201A4
:1005E50025C0E07409141200C5D0E0C000A84E1261
:1005F50000CCD000C000A84D1200CCD00022C00015
:10060500A8531200FAD000C000A8521200FAD00078
:100615009000E21200EF228564457546007547009B
:10062500754800120125854E53854D52221203E867
:1006350012041F1204561204AB12061C22E564991B
:100645004004C2018002D20122E564A93D9940041B
:09065500C2028004D202800022DE
:10065E00E531B53B07E532B53C02C295E531B4E76D
:10066E0007E532B40302D29522C29522D2952275A5
:06067E003B90753C0122D7
:10068400C0E0740F141200C7D0E0200102800AC039
:10069400E0743112007DD0E022C0E0743012007D9D
:1006A400D0E022C0E07410141200C7D0E02002028F
:1006B400800AC0E0743112007DD0E022C0E07430C2
:1006C40012007DD0E022C0E0740F141200C5D0E007
:1006D400200302800AC0E0743112007DD0E022C001
:1006E400E0743012007DD0E022546F3D20787843CE
:1006F4002020546A3D7878432000737878782E302F
:0B0704003020727878782E3030200012
:10070F00546F3D00432020546A3D00C0E074011433
:10071F001200C7D0E0C000A8301200CCD0001204E5
:10072F00F91205391205D71205ABC0E07401141286
:10073F0000C7D0E0C083C082C0E090070F1200BA9C
:10074F00D0E0D082D083C0E0740A141200C7D0E08A
:10075F00C083C082C0E09007131200BAD0E0D082ED
:10076F00D083C0E07401141200C5D0E0C0E07473F0
:10077F0012007DD0E0C0E07405141200C5D0E0C0B7
:10078F00E0747212007DD0E0221204F9120539C014
:10079F00E07401141200C7D0E0C083C082C0E090A3
:1007AF00070F1200BAD0E0D082D083C0E0740714D4
:1007BF001200C7D0E0C083C082C0E09007131200C0
:1007CF00BAD0E0D082D083C0E0740F141200C7D02B
:1007DF00E0C0E0744312007DD0E01205D71205ABE4
:1007EF00C0E07401141200C5D0E0C0E074731200B1
:1007FF007DD0E0C0E07409141200C5D0E0C0E074F1
:10080F007212007DD0E0C0E07405141200C5D0E074
:10081F00C0E0744312007DD0E0C0E0740D141200EC
:10082F00C5D0E0C0E0744312007DD0E0221204F97D
:10083F00120539C0E07401141200C7D0E0C000A83F
:10084F00301200CCD000C0E07401141200C5D0E00B
:10085F00C000A8361200CCD000C0E07405141200FE
:10086F00C5D0E0C000A8381200CCD00012068422F8
:10087F0020921B1209762092153092FD309009E5D7
:10088F003E240AF53E02089DE53F240AF53F2096D7
:10089F001B1209762096153096FD309009E53E24FF
:1008AF0001F53E0208BBE53F2401F53FE53F953ECC
:1008BF005004E53FF53E22753000753D32753E918F
:1008CF00753FD9755A00755B00755C00755D0075D5
:1008DF006000756100753600753800753B00753C1A
:1008EF0000753500753300753400C295D284D292ED
:1008FF00D296D290C201C20222C0E0C0D0C28C7583
:10090F008CF0758A2CD28CB285D0D0D0E032C2CF89
:10091F00C0E0C0D00531E53170020532E539B401D0
:10092F000312065EE531B4E839E532B4033412063A
:10093F0003E4F531F532B28CE5362401D4F536F502
:10094F0036B5381EE539B40119E530B4010F12067A
:10095F004E30020E75300075360002097175360083
:10096F000530D0D0D0E0327A0679C87868D8FED971
:10097F00FADAF622E530B400061209C10209C0E521
:10098F0030B401061209DF0209C0E530B4020612C5
:10099F0009F60209C0E530B403061209FD0209C0C9
:1009AF00E530B40406120A170209C0120A1E020922
:1009BF00C02275390012067712087F2084111209A0
:1009CF007620840B3084FD75360075386005302233
:1009DF0075390112067AA93E1206422001087536B2
:1009EF000075389005302212067D753901221206E6
:1009FF007A753900A93F12064220010B753901752E
:100A0F00360075386005302212067D7539012212C5
:100A1F000677753900793C120642300108C201751C
:100A2F0030007536002275AC0075AD0075B30075DA
:100A3F00B40075B10075B200C0E07401141200C7A4
:100A4F00D0E0C083C082C0E09006ED1200BAD0E0C3
:100A5F00D082D083C0E07401141200C5D0E0C083EF
:100A6F00C082C0E09006FE1200BAD0E0D082D083E0
:100A7F001208C679C87868D8FED9FA438E08E58976
:100A8F0054F04401F589758CF0758A2CD2A9D28C5B
:100A9F00438E1043878075985253C4DF53890F4399
:100AAF008920758DF7D28E43B38253B47D43AC0248
:100ABF0053ADFD75F60043F68343E10175C800752C
:100ACF00CDBF75CC2843C98075CBBF75CA28E4F557
:100ADF0031F532439B80D2CA2275817FD2AF120A81
:100AEF003512008712063212083C120983120110C8
:030AFF00020AF3F5
:00000001FF
