:03000000020C2BC4
:0100030032CA
:03000B00020A23C3
:0100130032BA
:01001B0032B2
:0100230032AA
:03002B00020A388E
:10002E00C000788500D8FDD00022C000C00179281C
:10003E007868D8FED9FADAF6D001D00022D294121E
:10004E00002EC29422A2E79283A2E69282A2E592A9
:10005E0081A2E4928012004B12002EA2E39283A2A0
:10006E00E29282A2E19281A2E0928012004B22D211
:10007E0093020053C293020053C294C0027A281214
:10008E000038D0027433120082743312008274323C
:10009E001200827428120082740C120082740112F3
:1000AE000082C0027A02120038D00222E493600667
:1000BE0012007DA380F62244404480020082C0E0FC
:1000CE00E8C4540F443012007DE8540F443012003F
:0400DE007DD0E022CF
:1000E2000D0A0080003099FDC299F59922E49360CF
:1000F200061200E5A380F622C0E0E8C4540F4430A3
:100102001200E5E8540F44301200E5D0E022200549
:100112000302012CC20574531200E5C000A830127C
:0B01220000FAD0009000E21200EF2273
:10012D00C0E0C0D0C000C001C002E4F54DF54EF5F1
:10013D004FF550F5517A20E548A2E779047845E668
:10014D0033F608D9FA7905784DE636D4F608D9F99B
:10015D00DAE5D002D001D000D0D0D0E022C0E0C08E
:10016D00D0C000C001C002E4F54DF54EF54FF5507D
:10017D00F5517A20E548A2E779047845E633F6088B
:10018D00D9FA7905784DC0D0E6243320E70224D082
:10019D0020E30224FDD0D033F608D9EADAD6D00216
:1001AD00D001D000D0D0D0E022C0E0C0D0C000C07F
:1001BD0001C0027A207905C37851E613C0D030E72B
:1001CD000224D030E30224FDF618D0D0D9EC790406
:1001DD007848E613F618D9FADADBD002D001D00050
:1001ED00D0D0D0E022C0E0C0D0E5452549F545E5A9
:1001FD0046354AF546E547354BF547E548354CF567
:10020D0048D0D0D0E022C0E0C0D0C3E5459549F537
:10021D0045E546954AF546E547954BF547E548953D
:10022D004CF548D0D0D0E022C0E0C0D0C3E5459514
:10023D0049E546954AE547954BE548954C9200D0E2
:10024D00D0D0E022C0E0C0D0C3E5499545E54A9540
:10025D0046E54B9547E54C95489200D0D0D0E0222D
:10026D00C0E0C0D0C200C3E54995457014E54A957C
:10027D0046700EE54B95477008E54C95487002D2D7
:10028D0000D0D0D0E02212026D20000302025122D4
:10029D0012026D20000302023522C0E0C0F0C0D072
:1002AD00C000C001C002C003E5458549F0A4F8A90E
:1002BD00F0E5468549F0A429F9E435F0FAE54585E0
:1002CD004AF0A429F9E5F03AFAE433FBE54785490C
:1002DD00F0A42AFAE5F03BFBE546854AF0A42AFA9C
:1002ED00E5F03BFBE545854BF0A42AFAE5F03BFB39
:1002FD00E5488549F0A42BFBE547854AF0A42BFB87
:10030D00E546854BF0A42BFBE545854CF0A42BFB76
:10031D008B488A4789468845D003D002D001D0004A
:10032D00D0D0D0F0D0E022C0E0C0D0C000C001C01D
:10033D0002C003C0047C20E4F8F9FAFBC3E54533A1
:10034D00F545E54633F546E54733F547E54833F5DD
:10035D0048E833F8E933F9EA33FAEB33FBC3E895B0
:10036D0049E9954AEA954BEB954C4013E89549F8C8
:10037D00E9954AF9EA954BFAEB954CFB434501DCBF
:10038D00BBD004D003D002D001D000D0D0D0E02219
:10039D00C2EFD2EE30EFFDE5C2540FF8E5C3C4C095
:1003AD00E0540FF9D0E054F048F822754500754639
:1003BD00007547007548007C647D3212039D754CB5
:1003CD0000754B00894A88491201F2DDEEDCEA75B1
:1003DD004988754A13754B00754C00120334A845B6
:1003ED00A9462253E8F043E8001203B8885A895B06
:1003FD002288458946754700754800754904754A38
:10040D0051754B00754C001202A7855A49855B4A00
:10041D00754B00754C001203342253E8F043E8018C
:10042D001203B81203FE7549A4754A6A754B00751F
:10043D004C0012021375490A754A00754B00754C34
:10044D00001202A785455C85465D85475E85485F40
:10045D002253E8F043E8071203B81203FE12012DF0
:10046D00855059854F58854E57854D567549E875B8
:10047D004A03754B00754C001202A7754988754AE1
:10048D0030754B00754C00120334754964754A0084
:10049D00754B00754C001202A78548638547628530
:1004AD00466185456022855F48855E47855D468549
:1004BD005C4585634C85624B85614A8560491201B7
:1004CD00F27549E8754A03754B00754C00120334FB
:1004DD00E5459402F56422855C45855D46855E475C
:1004ED00855F4812012D22856045856146856247ED
:1004FD0085634812012D221204E4C0E0740C14121D
:10050D0000C7D0E0C000A84F1200CCD000C000A89A
:10051D004E1200CCD000221204F4C0E0740114126B
:10052D0000C5D0E0C000A84F1200CCD000C000A87C
:10053D004E1200CCD00022E564C39464401DC0E08F
:10054D007403141200C7D0E0C000A8531200CCD021
:10055D0000C000A8521200CCD00022C0E0740414D8
:10056D001200C7D0E0C0E0742012007DD0E0C000C2
:10057D00A8521200CCD00022E556C0E0740114122E
:10058D0000C7D0E0C000A8591200CCD000C000A810
:10059D00581200CCD000C000A8571200CCD000C01B
:1005AD0000A8561200CCD00022853E457546007538
:1005BD00470075480012012DC0E07401141200C5EA
:1005CD00D0E0C000A84E1200CCD000C000A84D1243
:1005DD0000CCD00022853F45754600754700754813
:1005ED000012012DC0E07407141200C5D0E0C00048
:1005FD00A84E1200CCD000C000A84D1200CCD000E7
:10060D0022C000A8531200FAD000C000A852120058
:10061D00FAD0009000E21200EF2285644575460085
:10062D0075470075480012012D854E53854D522298
:10063D001203F012042712045E1204B312062722CD
:10064D00E564994004C2018002D20122E564A93D0E
:0C065D00994004C2028004D202800022F6
:10066900E531B53B07E532B53C02C295E531B4E762
:1006790007E532B40302D29522C29522D29522759A
:100689003B2C753C0122546F3D207878432020543F
:100699006A3D7878432000737878782E303020725C
:0806A9007878782E3030200033
:1006B100546F3D00432020546A3D0020202020201B
:1006C1004552524F5220202020202000202020205F
:1006D1002053203E205220202020202000202020B6
:1006E1002020202020202020202020202000E53F45
:1006F100953E5005753000D20822120504120544BA
:10070100C0E07401141200C7D0E0C083C082C0E011
:100711009006B11200BAD0E0D082D083C0E0740755
:10072100141200C7D0E0C083C082C0E09006B512A9
:1007310000BAD0E0D082D083C0E0740F141200C799
:10074100D0E0C0E0744312007DD0E01205E2120552
:10075100B6C0E07401141200C5D0E0C0E0745312B9
:10076100007DD0E0C0E07407141200C5D0E0C0E005
:10077100745212007DD0E0C0E07405141200C5D09F
:10078100E0C0E0744312007DD0E0C0E0740B1412AD
:1007910000C5D0E0C0E0744312007DD0E0C0E07439
:1007A1000F141200C5D0E0C000A8301200CCD00058
:1007B100300E15C0E0740D141200C5D0E0C0E07415
:1007C1005212007DD0E08013C0E0740D141200C5F8
:1007D100D0E0C0E0745312007DD0E0221205041273
:1007E1000544C0E07401141200C7D0E0C000A83075
:1007F1001200CCD000C0E07401141200C5D0E0C0DA
:1008010000A8361200CCD000C0E07405141200C557
:10081100D0E0C000A8381200CCD00022C0E07401A2
:10082100141200C7D0E0C083C082C0E09006BC12A1
:1008310000BAD0E0D082D083C0E07401141200C5A8
:10084100D0E0C083C082C0E09006CD1200BAD0E0F3
:10085100D082D083120AA6C0E07401141200C7D05E
:10086100E0C083C082C0E09006DE1200BAD0E0D0C2
:1008710082D083C0E07401141200C5D0E0C083C0EF
:1008810082C0E09006DE1200BAD0E0D082D083C2EE
:100891000822D209D20AD20BD20CD20DD296C2931F
:1008A100C280C281C282C283209638120A992096E0
:1008B10032D293D280D281D282D283C293A2969233
:1008C10009D293C280A296920AD280C281A2969244
:1008D1000BD281C282A296920CD282C283A296923C
:1008E1000DD28322200603020961D209D20AD20B5A
:1008F100D20CD20DD296C293C280C281C282C2836F
:1009010020965D120A99209657D293D280D281D235
:1009110082D283C293A2969209D293200909E53F1C
:10092100240AF53F020961C280A296920AD2802070
:100931000A09E53F2401F53F020961C281A29692AD
:100941000BD281200B09E53F940AF53F020961C2F0
:1009510082A296920CD282200C06E53F9401F53FCB
:10096100222006030209DED209D20AD20BD20CD20E
:100971000DD296C293C280C281C282C28320965D8B
:10098100120A99209657D293D280D281D282D283F1
:10099100C293A2969209D293200909E53E240AF551
:1009A1003E0209DEC280A296920AD280200A09E59F
:1009B1003E2401F53E0209DEC281A296920BD2814C
:1009C100200B09E53E940AF53E0209DEC282A29699
:1009D100920CD282200C06E53E9401F53E22753040
:1009E10000753D32753E91753FD9755A00755B00B2
:1009F100755C00755D007560007561007536007588
:100A01003800753B00753C00753500753300753451
:100A110000C295D284D293D280C283C20EC201C2D7
:100A21000222C0E0C0D0C28C758CF0758A2CD28CA9
:100A3100B285D0D0D0E032C2CFC0E0C0D00531E520
:100A41003170020532E539B40103120669E531B4AA
:100A5100E841E532B4033CD206D20712060EE4F5B2
:100A610031F532B28CE5362401D4F536F536B53898
:100A710022E539B4011DE530B401111206593002E5
:100A810012753000753600D205020A94753600D20F
:100A9100050530D0D0D0E0327A0679C87868D8FE22
:100AA100D9FADAF6227B027AC879C87868D8FED9F1
:100AB100FADAF6DBF222E530B40006120AF5020A90
:100AC100F4E530B40106120B18020AF4E530B40261
:100AD10006120B31020AF4E530B40306120B380298
:100AE1000AF4E530B40406120B54020AF4120B5B4B
:100AF100020AF42275390012068212089320841624
:100B0100120A992084103084FD753600753860050D
:100B110030D2051206EF22753901120685A93E125F
:100B2100064D20010A7536007538900530D2052230
:100B310012068875390122120685753900A93F12FE
:100B4100064D20010D753901753600753860053087
:100B5100D2052212068875390122120682753900E2
:100B6100793C12064D30010AC2017530007536001C
:100B7100D2052275AC0075AD0075B30075B4007572
:100B8100B10075B200D206D207C0E07401141200A0
:100B9100C7D0E0C083C082C0E090068F1200BAD0F7
:100BA100E0D082D083C0E07401141200C5D0E0C04F
:100BB10083C082C0E09006A01200BAD0E0D082D0FB
:100BC100831209DF79C87868D8FED9FA438E08E51F
:100BD1008954F04401F589758CF0758A2CD2A9D21B
:100BE1008C438E1043878075985253C4DF53890F0D
:100BF100438920758DF7D28E43B38253B47D43ACC4
:100C01000253ADFD75F60043F68343E10175C8005B
:100C110075CDBF75CC2843C98075CBBF75CA28E493
:100C2100F531F532439B80D2CA2275817FD2AF1252
:100C31000B7412008712063D1206FB3008031208DE
:100C41001D120AB7120110C205200D05300602B2AD
:100C51000E300E061208E5020C5E120962C206E5AC
:100C610030601030070D20840AC207D205753000AC
:060C71003084FD020C3688
:00000001FF
