:0300000002022DCC
:0100030032CA
:01000B0032C2
:0100130032BA
:01001B0032B2
:0100230032AA
:03002B000200FFD1
:10002E00C000788500D8FDD00022C000C00179281C
:10003E007868D8FED9FADAF6D001D00022D294121E
:10004E00002EC29422A2E79283A2E69282A2E592A9
:10005E0081A2E4928012004B12002EA2E39283A2A0
:10006E00E29282A2E19281A2E0928012004B22D211
:10007E0093020053C293020053C294C0027A281214
:10008E000038D0027433120082743312008274323C
:10009E001200827428120082740C120082740112F3
:1000AE000082C0027A02120038D00222E493600667
:1000BE0012007DA380F62244404480020082C0E0FC
:1000CE00E8C4540F443012007DE8540F443012003F
:1000DE007DD0E02275C80075CDBF75CC2843C98090
:1000EE0075CBBF75CA28E4F530F531439B80C2CA83
:1000FE0022C2CFC0E0C0D00530E53070020531E538
:10010E0030B4E82BE531B40326E4F530F531E532B1
:10011E002401D4F532B53417E533B4010B75330031
:10012E00753200C2CA02013D753200C2CA0533D013
:10013E00D0D0E032C0E07405141200C5D0E0C0008B
:10014E00A8341200CCD000C0E07401141200C5D047
:10015E00E0C000A8321200CCD000C0E0740114122E
:10016E0000C7D0E0C000A8331200CCD000227A0A1B
:10017E0079C87868D8FED9FADAF622E533B40006E3
:10018E001201C40201C3E533B401061201D9020102
:10019E00C3E533B402061201EE0201C3E533B40324
:1001AE00061201FB0201C3E533B40406120210026B
:1001BE0001C312021D2220971112017C20970B30D1
:1001CE0097FD7405F5340533D2CA2220971112011A
:1001DE007C20970B3097FD7406F5340533D2CA2276
:1001EE0020970912017C2097033097FD222097114A
:1001FE0012017C20970B3097FD7407F5340533D22E
:10020E00CA2220970912017C2097033097FD2220E5
:10021E00970C12017C2097063097FD7533002275DE
:10022E00817F75B10075B20075B30075B40075AD00
:10023E000075AD00120087753200753300753400FD
:0E024E001200E2D2AF120142120189020253E5
:00000001FF
