:03000000020932C0
:0100030032CA
:03000B00020733B6
:0100130032BA
:01001B0032B2
:0100230032AA
:03002B0002075376
:10002E00C000788500D8FDD00022C000C00179281C
:10003E007868D8FED9FADAF6D001D00022D294121E
:10004E00002EC29422A2E79283A2E69282A2E592A9
:10005E0081A2E4928012004B12002EA2E39283A2A0
:10006E00E29282A2E19281A2E0928012004B22D211
:10007E0093020053C293020053C294C0027A281214
:10008E000038D0027433120082743312008274323C
:10009E001200827428120082740C120082740112F3
:1000AE000082C0027A02120038D00222E493600667
:1000BE0012007DA380F62244404480020082C0E0FC
:1000CE00E8C4540F443012007DE8540F443012003F
:0400DE007DD0E022CF
:1000E2000D0A0080003099FDC299F59922E49360CF
:1000F200061200E5A380F622C0E0E8C4540F4430A3
:0E0102001200E5E8540F44301200E5D0E02270
:10011000C0E0C0D0C000C001C002E4F54DF54EF50E
:100120004FF550F5517A20E548A2E779047845E685
:1001300033F608D9FA7905784DE636D4F608D9F9B8
:10014000DAE5D002D001D000D0D0D0E022C0E0C0AB
:10015000D0C000C001C002E4F54DF54EF54FF5509A
:10016000F5517A20E548A2E779047845E633F608A8
:10017000D9FA7905784DC0D0E6243320E70224D09F
:1001800020E30224FDD0D033F608D9EADAD6D00233
:10019000D001D000D0D0D0E022C0E0C0D0C000C09C
:1001A00001C0027A207905C37851E613C0D030E748
:1001B0000224D030E30224FDF618D0D0D9EC790423
:1001C0007848E613F618D9FADADBD002D001D0006D
:1001D000D0D0D0E022C0E0C0D0E5452549F545E5C6
:1001E00046354AF546E547354BF547E548354CF584
:1001F00048D0D0D0E022C0E0C0D0C3E5459549F555
:1002000045E546954AF546E547954BF547E548955A
:100210004CF548D0D0D0E022C0E0C0D0C3E5459531
:1002200049E546954AE547954BE548954C9200D0FF
:10023000D0D0E022C0E0C0D0C3E5499545E54A955D
:1002400046E54B9547E54C95489200D0D0D0E0224A
:10025000C0E0C0D0C200C3E54995457014E54A9599
:1002600046700EE54B95477008E54C95487002D2F4
:1002700000D0D0D0E022120250200003020234222B
:1002800012025020000302021822C0E0C0F0C0D0C9
:10029000C000C001C002C003E5458549F0A4F8A92B
:1002A000F0E5468549F0A429F9E435F0FAE54585FD
:1002B0004AF0A429F9E5F03AFAE433FBE547854929
:1002C000F0A42AFAE5F03BFBE546854AF0A42AFAB9
:1002D000E5F03BFBE545854BF0A42AFAE5F03BFB56
:1002E000E5488549F0A42BFBE547854AF0A42BFBA4
:1002F000E546854BF0A42BFBE545854CF0A42BFB94
:100300008B488A4789468845D003D002D001D00067
:10031000D0D0D0F0D0E022C0E0C0D0C000C001C03A
:1003200002C003C0047C20E4F8F9FAFBC3E54533BE
:10033000F545E54633F546E54733F547E54833F5FA
:1003400048E833F8E933F9EA33FAEB33FBC3E895CD
:1003500049E9954AEA954BEB954C4013E89549F8E5
:10036000E9954AF9EA954BFAEB954CFB434501DCDC
:10037000BBD004D003D002D001D000D0D0D0E02236
:10038000C2EFD2EE30EFFDE5C2540FF8E5C3C4C0B2
:10039000E0540FF9D0E054F048F822754500754656
:1003A000007547007548007C647D32120380754CEF
:1003B00000754B00894A88491201D5DDEEDCEA75EB
:1003C0004988754A13754B00754C00120317A845F0
:1003D000A9462253E8F043E80012039B885489554C
:1003E0002288458946754700754800754904754A55
:1003F00051754B00754C0012028A85544985554A47
:10040000754B00754C001203177549A4754A6A753F
:100410004B00754C001201F62253E8F043E801123C
:10042000039B1203E18545568546572253E8F04366
:10043000E80712039B1203E185455885465922853A
:100440005645855746754700754800855849855972
:100450004A754B00754C001201D5754964754A0008
:10046000754B00754C0012031785455A2285564579
:100470008557467547007548001201102212046D19
:10048000C0E0740C141200C7D0E0C000A84E1200E7
:10049000CCD00022E55A94644013C0E074041412D6
:1004A00000C7D0E0C000A8531200CCD000C0E07458
:1004B00005141200C7D0E0C000A8521200CCD00032
:1004C00022853E45754600754700754800120110AB
:1004D000C0E07402141200C5D0E0C000A84E1200A3
:1004E000CCD000C000A84D1200CCD00022853F45E2
:1004F000754600754700754800120110C0E0740A87
:10050000141200C5D0E0C000A84E1200CCD000C02C
:1005100000A84D1200CCD00022C000A8531200FA4F
:10052000D000C000A8521200FAD0009000E21200E1
:10053000EF22855A4575460075470075480012013F
:1005400010854E53854D52221203D3120419120402
:100550002C12043F12053222E55A994004C2018050
:1005600002D20122E55AA93D994004C2028004D278
:0405700002800022E3
:10057400E531B53B07E532B53C02D295E531B4E748
:1005840007E532B40302C29522D29522C2952275A0
:060594003BC8753C00228B
:10059A00C0E0740F141200C7D0E0200102800AC024
:1005AA00E0743112007DD0E022C0E0743012007D88
:1005BA00D0E022C0E07410141200C7D0E02002027A
:1005CA00800AC0E0743112007DD0E022C0E07430AD
:1005DA0012007DD0E022C0E0740F141200C5D0E0F2
:1005EA00200302800AC0E0743112007DD0E022C0EC
:1005FA00E0743012007DD0E022546F3D20787843B9
:10060A002020546A3D7878432000737878782E3019
:0B061A003020727878782E30302000FD
:100625000533E53370020534E533B4F418E534B425
:100635000113E4F533F534B2030535E535B40405A6
:10064500753500C20322C0E07401141200C7D0E062
:10065500C000A8301200CCD00012047D1204941200
:1006650004ED1204C12212047D120494C0E0740149
:10067500141200C7D0E0C000A8301200CCD000C0D2
:10068500E07401141200C5D0E0C000A8361200CCF9
:10069500D000C0E07405141200C5D0E0C000A83831
:1006A5001200CCD0001205E012059A2220921B12EE
:1006B50007AA2092153092FD309009E53E240AF5EF
:1006C5003E0206CFE53F240AF53F20961B1207AAF6
:1006D5002096153096FD309009E53E2401F53E0241
:1006E50006EDE53F2401F53FE53F953E5004E53F26
:1006F500F53E22753000753D32753E91753FD975D1
:100705005400755500755600755700755800755994
:1007150000753600753800753B00753C00D295D2E2
:1007250084D292D296D290C203C201C20222C0E004
:10073500C0D030030EC28C758CF0758A2CD28CB269
:10074500858006758CF0758A2CD0D0D0E032C2CF6A
:10075500C0E0C0D00531E53170020532E539B4019C
:1007650003120574E531B4E837E532B403321205F6
:1007750019E4F531F532E5362401D4F536F536B50B
:10078500381EE539B40119E530B4010F120564309E
:10079500020E7530007536000207A5753600053066
:1007A500D0D0D0E0327A0679C87868D8FED9FADA9E
:1007B500F622E530B400061207F50207F4E530B479
:1007C50001061208120207F4E530B4020612082BDE
:1007D5000207F4E530B403061208430207F4E530D6
:1007E500B4040612085F0207F41208660207F42231
:1007F50075390012058D2084131207AA20840D3047
:1008050084FD7536007538060530D2032275390129
:10081500120590A93E12055820010A753600753853
:10082500060530D2032212059375390120840E1274
:1008350007AA2084083084FD753900D203221205E9
:1008450090753900A93F12055820010D75390175BC
:1008550036007538070530D2032212059375390124
:100865002212058D753900793C12055830010AC2EE
:1008750001753000753600D2032275AC0075AD00E8
:1008850075B30075B40075B10075B200C0E07401B0
:10089500141200C7D0E0C083C082C0E090060312E6
:1008A50000BAD0E0D082D083C0E07401141200C534
:1008B500D0E0C083C082C0E09006141200BAD0E038
:1008C500D082D0831206F879C87868D8FED9FA4361
:1008D5008E08E58954F04401F589758CF0758A2CEC
:1008E500D2A9D28C438E1043878075985253C4DFAA
:1008F50053890F438920758DF7D28E43B38253B444
:100905007D43AC0253ADFD75F60043F68343E1012B
:1009150075C80075CDBF75CC2843C98075CBBF752B
:10092500CA28E4F531F532439B80D2CA2275817F0E
:10093500D2AF12087F12008712054812066B120704
:04094500B702093DAF
:00000001FF
