:03000000020A35BC
:0100030032CA
:03000B0002085593
:0100130032BA
:01001B0032B2
:0100230032AA
:03002B0002086A5E
:10002E00C000788500D8FDD00022C000C00179281C
:10003E007868D8FED9FADAF6D001D00022D294121E
:10004E00002EC29422A2E79283A2E69282A2E592A9
:10005E0081A2E4928012004B12002EA2E39283A2A0
:10006E00E29282A2E19281A2E0928012004B22D211
:10007E0093020053C293020053C294C0027A281214
:10008E000038D0027433120082743312008274323C
:10009E001200827428120082740C120082740112F3
:1000AE000082C0027A02120038D00222E493600667
:1000BE0012007DA380F62244404480020082C0E0FC
:1000CE00E8C4540F443012007DE8540F443012003F
:0400DE007DD0E022CF
:1000E2000D0A0080003099FDC299F59922E49360CF
:1000F200061200E5A380F622C0E0E8C4540F4430A3
:0E0102001200E5E8540F44301200E5D0E02270
:10011000C0E0C0D0C000C001C002E4F54DF54EF50E
:100120004FF550F5517A20E548A2E779047845E685
:1001300033F608D9FA7905784DE636D4F608D9F9B8
:10014000DAE5D002D001D000D0D0D0E022C0E0C0AB
:10015000D0C000C001C002E4F54DF54EF54FF5509A
:10016000F5517A20E548A2E779047845E633F608A8
:10017000D9FA7905784DC0D0E6243320E70224D09F
:1001800020E30224FDD0D033F608D9EADAD6D00233
:10019000D001D000D0D0D0E022C0E0C0D0C000C09C
:1001A00001C0027A207905C37851E613C0D030E748
:1001B0000224D030E30224FDF618D0D0D9EC790423
:1001C0007848E613F618D9FADADBD002D001D0006D
:1001D000D0D0D0E022C0E0C0D0E5452549F545E5C6
:1001E00046354AF546E547354BF547E548354CF584
:1001F00048D0D0D0E022C0E0C0D0C3E5459549F555
:1002000045E546954AF546E547954BF547E548955A
:100210004CF548D0D0D0E022C0E0C0D0C3E5459531
:1002200049E546954AE547954BE548954C9200D0FF
:10023000D0D0E022C0E0C0D0C3E5499545E54A955D
:1002400046E54B9547E54C95489200D0D0D0E0224A
:10025000C0E0C0D0C200C3E54995457014E54A9599
:1002600046700EE54B95477008E54C95487002D2F4
:1002700000D0D0D0E022120250200003020234222B
:1002800012025020000302021822C0E0C0F0C0D0C9
:10029000C000C001C002C003E5458549F0A4F8A92B
:1002A000F0E5468549F0A429F9E435F0FAE54585FD
:1002B0004AF0A429F9E5F03AFAE433FBE547854929
:1002C000F0A42AFAE5F03BFBE546854AF0A42AFAB9
:1002D000E5F03BFBE545854BF0A42AFAE5F03BFB56
:1002E000E5488549F0A42BFBE547854AF0A42BFBA4
:1002F000E546854BF0A42BFBE545854CF0A42BFB94
:100300008B488A4789468845D003D002D001D00067
:10031000D0D0D0F0D0E022C0E0C0D0C000C001C03A
:1003200002C003C0047C20E4F8F9FAFBC3E54533BE
:10033000F545E54633F546E54733F547E54833F5FA
:1003400048E833F8E933F9EA33FAEB33FBC3E895CD
:1003500049E9954AEA954BEB954C4013E89549F8E5
:10036000E9954AF9EA954BFAEB954CFB434501DCDC
:10037000BBD004D003D002D001D000D0D0D0E02236
:10038000C2EFD2EE30EFFDE5C2540FF8E5C3C4C0B2
:10039000E0540FF9D0E054F048F822754500754656
:1003A000007547007548007C647D32120380754CEF
:1003B00000754B00894A88491201D5DDEEDCEA75EB
:1003C0004988754A13754B00754C00120317A845F0
:1003D000A9462253E8F043E80012039B885A895B40
:1003E0002288458946754700754800754904754A55
:1003F00051754B00754C0012028A855A49855B4A3B
:10040000754B00754C001203172253E8F043E801C6
:1004100012039B1203E17549A4754A6A754B007576
:100420004C001201F675490A754A00754B00754C6F
:100430000012028A85455C85465D85475E85485F7A
:100440002253E8F043E80712039B1203E112011064
:10045000855059854F58854E57854D567549E875D5
:100460004A03754B00754C0012028A754988754A1B
:1004700030754B00754C00120317754964754A00BE
:10048000754B00754C0012028A854863854762856A
:10049000466185456022855F48855E47855D468566
:1004A0005C4585634C85624B85614A8560491201D4
:1004B000D57549E8754A03754B00754C0012031752
:1004C00085456422855C45855D46855E47855F4838
:1004D0001201102285604585614685624785634823
:1004E000120110221204C4C0E0740A141200C7D012
:1004F000E0C000A84F1200CCD000C000A84E1200EF
:10050000CCD000C000A84D1200CCD000221204D4E0
:10051000C0E07401141200C5D0E0C000A84F120062
:10052000CCD000C000A84E1200CCD000C000A84D16
:100530001200CCD00022E564C39464401DC0E07476
:1005400004141200C7D0E0C000A8531200CCD000A1
:10055000C000A8521200CCD00022C0E074051412D2
:1005600000C7D0E0C000A8521200CCD00022E5564F
:10057000C0E07401141200C7D0E0C000A8591200F6
:10058000CCD000C000A8581200CCD000C000A857A2
:100590001200CCD000C000A8561200CCD00022859A
:1005A0003E45754600754700754800120110C0E0D1
:1005B0007402141200C5D0E0C000A84E1200CCD0C6
:1005C00000C000A84D1200CCD00022853F457546E2
:1005D00000754700754800120110C0E0740A14123B
:1005E00000C5D0E0C000A84E1200CCD000C000A8CA
:1005F0004D1200CCD00022C000A8531200FAD00047
:10060000C000A8521200FAD0009000E21200EF22BF
:1006100085644575460075470075480012011085D0
:100620004E53854D52221203D312040A1204411272
:10063000049612061022E564994004C2018002D299
:100640000122E564A93D994004C2028004D20280DF
:02065000002286
:10065200E531B53B07E532B53C02D295E531B4E769
:1006620007E532B40302C29522D29522C2952275C1
:060672003BC8753C0022AC
:10067800C0E0740F141200C7D0E0200102800AC045
:10068800E0743112007DD0E022C0E0743012007DA9
:10069800D0E022C0E07410141200C7D0E02002029B
:1006A800800AC0E0743112007DD0E022C0E07430CE
:1006B80012007DD0E022C0E0740F141200C5D0E013
:1006C800200302800AC0E0743112007DD0E022C00D
:1006D800E0743012007DD0E022546F3D20787843DA
:1006E8002020546A3D7878432000737878782E303B
:0B06F8003020727878782E303020001F
:1007030054633D00546A3D00C0E07401141200C7F5
:10071300D0E0C000A8301200CCD0001204E41205CF
:10072300361205CB12059FC0E07401141200C7D026
:10073300E0C083C082C0E09007031200BAD0E0D0CB
:1007430082D083C0E0740A141200C7D0E0C083C013
:1007530082C0E09007071200BAD0E0D082D083C0F5
:10076300E07401141200C5D0E0C0E0747312007D80
:10077300D0E0C0E07405141200C5D0E0C0E074728C
:1007830012007DD0E0221204E4120536C0E07401A9
:10079300141200C7D0E0C000A8301200CCD000C0B3
:1007A300E07401141200C5D0E0C000A8361200CCDA
:1007B300D000C0E07405141200C5D0E0C000A83812
:1007C3001200CCD0001206782220921B1208C320FC
:1007D30092153092FD309009E53E240AF53E02075A
:1007E300EAE53F240AF53F20961B1208C32096151D
:1007F3003096FD309009E53E2401F53E020808E5F8
:100803003F2401F53FE53F953E5004E53FF53E2289
:10081300753000753D32753E91753FD9755A007537
:100823005B00755C00755D00756000756100753671
:1008330000753800753B00753C0075350075330055
:10084300753400C295D284D292D296D290C201C29C
:100853000222C0E0C0D0C28C758CF0758A2CD28C79
:10086300B285D0D0D0E032C2CFC0E0C0D00531E5F0
:100873003170020532E539B40103120652E531B491
:10088300E839E532B403341205F7E4F531F532B251
:100893008CE5362401D4F536F536B5381EE539B482
:1008A3000119E530B4010F12064230020E75300013
:1008B3007536000208BE7536000530D0D0D0E03260
:1008C3007A0679C87868D8FED9FADAF622E530B420
:1008D300000612090E02090DE530B4010612092CB7
:1008E30002090DE530B4020612094302090DE53091
:1008F300B4030612094A02090DE530B404061209CD
:100903006402090D12096B02090D227539001206E2
:100913006B1207CC2084111208C320840B3084FD92
:1009230075360075386005302275390112066EA9D7
:100933003E120636200108753600753890053022C0
:100943001206717539012212066E753900A93F121C
:10095300063620010B753901753600753860053090
:10096300221206717539012212066B753900793C22
:10097300120636300108C201753000753600227543
:10098300AC0075AD0075B30075B40075B10075B2F8
:1009930000C0E07401141200C7D0E0C083C082C05D
:1009A300E09006E11200BAD0E0D082D083C0E074B8
:1009B30001141200C5D0E0C083C082C0E09006F2EB
:1009C3001200BAD0E0D082D08312081379C87868B5
:1009D300D8FED9FA438E08E58954F04401F58975A8
:1009E3008CF0758A2CD2A9D28C438E1043878075E4
:1009F300985253C4DF53890F438920758DF7D28EE4
:100A030043B38253B47D43AC0253ADFD75F600434B
:100A1300F68343E10175C80075CDBF75CC2843C982
:100A23008075CBBF75CA28E4F531F532439B80D27C
:100A3300CA2275817FD2AF1209821200871206265D
:090A43001207891208D0020A40D2
:00000001FF
