:03000000020B29C7
:0100030032CA
:03000B0002093DAA
:0100130032BA
:01001B0032B2
:0100230032AA
:03002B0002095275
:10002E00C000788500D8FDD00022C000C00179281C
:10003E007868D8FED9FADAF6D001D00022D294121E
:10004E00002EC29422A2E79283A2E69282A2E592A9
:10005E0081A2E4928012004B12002EA2E39283A2A0
:10006E00E29282A2E19281A2E0928012004B22D211
:10007E0093020053C293020053C294C0027A281214
:10008E000038D0027433120082743312008274323C
:10009E001200827428120082740C120082740112F3
:1000AE000082C0027A02120038D00222E493600667
:1000BE0012007DA380F62244404480020082C0E0FC
:1000CE00E8C4540F443012007DE8540F443012003F
:0400DE007DD0E022CF
:1000E2000D0A0080003099FDC299F59922E49360CF
:1000F200061200E5A380F622C0E0E8C4540F4430A3
:100102001200E5E8540F44301200E5D0E022200549
:100112000302012CC20574531200E5C000A830127C
:0B01220000FAD0009000E21200EF2273
:10012D00C0E0C0D0C000C001C002E4F54DF54EF5F1
:10013D004FF550F5517A20E548A2E779047845E668
:10014D0033F608D9FA7905784DE636D4F608D9F99B
:10015D00DAE5D002D001D000D0D0D0E022C0E0C08E
:10016D00D0C000C001C002E4F54DF54EF54FF5507D
:10017D00F5517A20E548A2E779047845E633F6088B
:10018D00D9FA7905784DC0D0E6243320E70224D082
:10019D0020E30224FDD0D033F608D9EADAD6D00216
:1001AD00D001D000D0D0D0E022C0E0C0D0C000C07F
:1001BD0001C0027A207905C37851E613C0D030E72B
:1001CD000224D030E30224FDF618D0D0D9EC790406
:1001DD007848E613F618D9FADADBD002D001D00050
:1001ED00D0D0D0E022C0E0C0D0E5452549F545E5A9
:1001FD0046354AF546E547354BF547E548354CF567
:10020D0048D0D0D0E022C0E0C0D0C3E5459549F537
:10021D0045E546954AF546E547954BF547E548953D
:10022D004CF548D0D0D0E022C0E0C0D0C3E5459514
:10023D0049E546954AE547954BE548954C9200D0E2
:10024D00D0D0E022C0E0C0D0C3E5499545E54A9540
:10025D0046E54B9547E54C95489200D0D0D0E0222D
:10026D00C0E0C0D0C200C3E54995457014E54A957C
:10027D0046700EE54B95477008E54C95487002D2D7
:10028D0000D0D0D0E02212026D20000302025122D4
:10029D0012026D20000302023522C0E0C0F0C0D072
:1002AD00C000C001C002C003E5458549F0A4F8A90E
:1002BD00F0E5468549F0A429F9E435F0FAE54585E0
:1002CD004AF0A429F9E5F03AFAE433FBE54785490C
:1002DD00F0A42AFAE5F03BFBE546854AF0A42AFA9C
:1002ED00E5F03BFBE545854BF0A42AFAE5F03BFB39
:1002FD00E5488549F0A42BFBE547854AF0A42BFB87
:10030D00E546854BF0A42BFBE545854CF0A42BFB76
:10031D008B488A4789468845D003D002D001D0004A
:10032D00D0D0D0F0D0E022C0E0C0D0C000C001C01D
:10033D0002C003C0047C20E4F8F9FAFBC3E54533A1
:10034D00F545E54633F546E54733F547E54833F5DD
:10035D0048E833F8E933F9EA33FAEB33FBC3E895B0
:10036D0049E9954AEA954BEB954C4013E89549F8C8
:10037D00E9954AF9EA954BFAEB954CFB434501DCBF
:10038D00BBD004D003D002D001D000D0D0D0E02219
:10039D00C2EFD2EE30EFFDE5C2540FF8E5C3C4C095
:1003AD00E0540FF9D0E054F048F822754500754639
:1003BD00007547007548007C647D3212039D754CB5
:1003CD0000754B00894A88491201F2DDEEDCEA75B1
:1003DD004988754A13754B00754C00120334A845B6
:1003ED00A9462253E8F043E8001203B8885A895B06
:1003FD002288458946754700754800754904754A38
:10040D0051754B00754C001202A7855A49855B4A00
:10041D00754B00754C001203342253E8F043E8018C
:10042D001203B81203FE7549A4754A6A754B00751F
:10043D004C0012021375490A754A00754B00754C34
:10044D00001202A785455C85465D85475E85485F40
:10045D002253E8F043E8071203B81203FE12012DF0
:10046D00855059854F58854E57854D567549E875B8
:10047D004A03754B00754C001202A7754988754AE1
:10048D0030754B00754C00120334754964754A0084
:10049D00754B00754C001202A78548638547628530
:1004AD00466185456022855F48855E47855D468549
:1004BD005C4585634C85624B85614A8560491201B7
:1004CD00F27549E8754A03754B00754C00120334FB
:1004DD00E5459402F56422855C45855D46855E475C
:1004ED00855F4812012D22856045856146856247ED
:1004FD0085634812012D221204E4C0E0740C14121D
:10050D0000C7D0E0C000A84F1200CCD000C000A89A
:10051D004E1200CCD000221204F4C0E0740114126B
:10052D0000C5D0E0C000A84F1200CCD000C000A87C
:10053D004E1200CCD00022E564C39464401DC0E08F
:10054D007403141200C7D0E0C000A8531200CCD021
:10055D0000C000A8521200CCD00022C0E0740414D8
:10056D001200C7D0E0C0E0742012007DD0E0C000C2
:10057D00A8521200CCD00022E556C0E0740114122E
:10058D0000C7D0E0C000A8591200CCD000C000A810
:10059D00581200CCD000C000A8571200CCD000C01B
:1005AD0000A8561200CCD00022853E457546007538
:1005BD00470075480012012DC0E07401141200C5EA
:1005CD00D0E0C000A84E1200CCD000C000A84D1243
:1005DD0000CCD00022853F45754600754700754813
:1005ED000012012DC0E07409141200C5D0E0C00046
:1005FD00A84E1200CCD000C000A84D1200CCD000E7
:10060D0022C000A8531200FAD000C000A852120058
:10061D00FAD0009000E21200EF2285644575460085
:10062D0075470075480012012D854E53854D522298
:10063D001203F012042712045E1204B312062722CD
:10064D00E564994004C2028002D20222E564A93D0C
:0C065D00994004C2038004D203800022F4
:10066900E531B53B07E532B53C02C295E531B4E762
:1006790007E532B40302D29522C29522D29522759A
:100689003B2C753C0122546F3D207878432020543F
:100699006A3D7878432000737878782E303020725C
:0806A9007878782E3030200033
:1006B100546F3D00432020546A3D00120504120589
:1006C10044C0E07401141200C7D0E0C083C082C0EE
:1006D100E09006B11200BAD0E0D082D083C0E074BD
:1006E10007141200C7D0E0C083C082C0E09006B5F5
:1006F1001200BAD0E0D082D083C0E0740F1412008F
:10070100C7D0E0C0E0744312007DD0E01205E212D0
:1007110005B6C0E07401141200C5D0E0C0E07473E6
:1007210012007DD0E0C0E07409141200C5D0E0C011
:10073100E0747212007DD0E0C0E07405141200C5AF
:10074100D0E0C0E0744312007DD0E0C0E0740D142D
:100751001200C5D0E0C0E0744312007DD0E0C0E0DB
:10076100740F141200C5D0E0C000A8301200CCD024
:100771000022120504120544C0E07401141200C7DE
:10078100D0E0C000A8301200CCD000C0E074011449
:100791001200C5D0E0C000A8361200CCD000C0E0E5
:1007A1007405141200C5D0E0C000A8381200CCD0E6
:1007B1000022D206D207D208D209D20AD296C29317
:1007C100C280C281C282C2902096381209AF20969F
:1007D10032D293D280D281D282D290C293A2969207
:1007E10006D293C280A2969207D280C281A296922B
:1007F10008D281C282A2969209D282C290A2969216
:100801000AD29022200103020881D206D207D2081F
:10081100D209D20AD296C293C280C281C282C29048
:1008210020965D1209AF209657D293D280D281D201
:1008310082D290C293A2969206D293200609E53FF6
:10084100240AF53F020881C280A2969207D2802035
:100851000709E53F2401F53F020881C281A2969272
:1008610008D281200809E53F940AF53F020881C2B8
:1008710082A2969209D282200906E53F9401F53FB2
:10088100222001030208FED206D207D208D209D2E1
:100891000AD296C293C280C281C282C29020965D62
:1008A1001209AF209657D293D280D281D282D290B0
:1008B100C293A2969206D293200609E53E240AF538
:1008C1003E0208FEC280A2969207D280200709E567
:1008D1003E2401F53E0208FEC281A2969208D28111
:1008E100200809E53E940AF53E0208FEC282A2965E
:1008F1009209D282200906E53E9401F53E22753027
:1009010000753D32753E91753FD9755A00755B0092
:10091100755C00755D00756000756100D205753606
:1009210000753800753B00753C0075350075330066
:10093100753400C295D284C202C20322C0E0C0D085
:10094100C28C758CF0758A2CD28CB285D0D0D0E057
:1009510032C2CFC0E0C0D00531E53170020532E5C9
:1009610039B40103120669E531B4E83DE532B40357
:100971003812060EE4F531F532B28CE5362401D495
:10098100F536F536B53822E539B4011DE530B40147
:1009910011120659300312753000753600D2050266
:1009A10009AA753600D2050530D0D0D0E0327A06DA
:1009B10079C87868D8FED9FADAF622E530B40006AB
:1009C1001209FA0209F9E530B40106120A1A0209FC
:1009D100F9E530B40206120A330209F9E530B4032D
:1009E10006120A3A0209F9E530B40406120A56025F
:1009F10009F9120A5D0209F92275390012068212FB
:100A010007B32084131209AF20840D3084FD75369D
:100A1100007538600530D20522753901120685A9A5
:100A21003E12064D20020A7536007538900530D207
:100A3100052212068875390122120685753900A929
:100A41003F12064D20020D7539017536007538606B
:100A51000530D205221206887539012212068275E7
:100A61003900793C12064D30020AC2027530007518
:100A71003600D2052275AC0075AD0075B30075B4B2
:100A81000075B10075B200C0E07401141200C7D046
:100A9100E0C083C082C0E090068F1200BAD0E0D0DF
:100AA10082D083C0E07401141200C5D0E0C083C0BD
:100AB10082C0E09006A01200BAD0E0D082D08312AA
:100AC10008FF79C87868D8FED9FA438E08E58954B9
:100AD100F04401F589758CF0758A2CD2A9D28C432A
:100AE1008E1043878075985253C4DF53890F438911
:100AF10020758DF7D28E43B38253B47D43AC02533C
:100B0100ADFD75F60043F68343E10175C80075CD6F
:100B1100BF75CC2843C98075CBBF75CA28E4F531B0
:100B2100F532439B80D2CA2275817FD2AF120A76F9
:100B310012008712063D1206BC1209BC120110C236
:040B410005020B346A
:00000001FF
