:03000000020C32BD
:0100030032CA
:03000B00020A2ABC
:0100130032BA
:01001B0032B2
:0100230032AA
:03002B00020A3F87
:10002E00C000788500D8FDD00022C000C00179281C
:10003E007868D8FED9FADAF6D001D00022D294121E
:10004E00002EC29422A2E79283A2E69282A2E592A9
:10005E0081A2E4928012004B12002EA2E39283A2A0
:10006E00E29282A2E19281A2E0928012004B22D211
:10007E0093020053C293020053C294C0027A281214
:10008E000038D0027433120082743312008274323C
:10009E001200827428120082740C120082740112F3
:1000AE000082C0027A02120038D00222E493600667
:1000BE0012007DA380F62244404480020082C0E0FC
:1000CE00E8C4540F443012007DE8540F443012003F
:0400DE007DD0E022CF
:1000E2000D0A0080003099FDC299F59922E49360CF
:1000F200061200E5A380F622C0E0E8C4540F4430A3
:100102001200E5E8540F44301200E5D0E022200549
:100112000302012CC20574531200E5C000A830127C
:0B01220000FAD0009000E21200EF2273
:10012D00C0E0C0D0C000C001C002E4F54DF54EF5F1
:10013D004FF550F5517A20E548A2E779047845E668
:10014D0033F608D9FA7905784DE636D4F608D9F99B
:10015D00DAE5D002D001D000D0D0D0E022C0E0C08E
:10016D00D0C000C001C002E4F54DF54EF54FF5507D
:10017D00F5517A20E548A2E779047845E633F6088B
:10018D00D9FA7905784DC0D0E6243320E70224D082
:10019D0020E30224FDD0D033F608D9EADAD6D00216
:1001AD00D001D000D0D0D0E022C0E0C0D0C000C07F
:1001BD0001C0027A207905C37851E613C0D030E72B
:1001CD000224D030E30224FDF618D0D0D9EC790406
:1001DD007848E613F618D9FADADBD002D001D00050
:1001ED00D0D0D0E022C0E0C0D0E5452549F545E5A9
:1001FD0046354AF546E547354BF547E548354CF567
:10020D0048D0D0D0E022C0E0C0D0C3E5459549F537
:10021D0045E546954AF546E547954BF547E548953D
:10022D004CF548D0D0D0E022C0E0C0D0C3E5459514
:10023D0049E546954AE547954BE548954C9200D0E2
:10024D00D0D0E022C0E0C0D0C3E5499545E54A9540
:10025D0046E54B9547E54C95489200D0D0D0E0222D
:10026D00C0E0C0D0C200C3E54995457014E54A957C
:10027D0046700EE54B95477008E54C95487002D2D7
:10028D0000D0D0D0E02212026D20000302025122D4
:10029D0012026D20000302023522C0E0C0F0C0D072
:1002AD00C000C001C002C003E5458549F0A4F8A90E
:1002BD00F0E5468549F0A429F9E435F0FAE54585E0
:1002CD004AF0A429F9E5F03AFAE433FBE54785490C
:1002DD00F0A42AFAE5F03BFBE546854AF0A42AFA9C
:1002ED00E5F03BFBE545854BF0A42AFAE5F03BFB39
:1002FD00E5488549F0A42BFBE547854AF0A42BFB87
:10030D00E546854BF0A42BFBE545854CF0A42BFB76
:10031D008B488A4789468845D003D002D001D0004A
:10032D00D0D0D0F0D0E022C0E0C0D0C000C001C01D
:10033D0002C003C0047C20E4F8F9FAFBC3E54533A1
:10034D00F545E54633F546E54733F547E54833F5DD
:10035D0048E833F8E933F9EA33FAEB33FBC3E895B0
:10036D0049E9954AEA954BEB954C4013E89549F8C8
:10037D00E9954AF9EA954BFAEB954CFB434501DCBF
:10038D00BBD004D003D002D001D000D0D0D0E02219
:10039D00C2EFD2EE30EFFDE5C2540FF8E5C3C4C095
:1003AD00E0540FF9D0E054F048F822754500754639
:1003BD00007547007548007C647D3212039D754CB5
:1003CD0000754B00894A88491201F2DDEEDCEA75B1
:1003DD004988754A13754B00754C00120334A845B6
:1003ED00A9462253E8F043E8001203B8885A895B06
:1003FD002288458946754700754800754904754A38
:10040D0051754B00754C001202A7855A49855B4A00
:10041D00754B00754C001203342253E8F043E8018C
:10042D001203B81203FE7549A4754A6A754B00751F
:10043D004C0012021375490A754A00754B00754C34
:10044D00001202A785455C85465D85475E85485F40
:10045D002253E8F043E8071203B81203FE12012DF0
:10046D00855059854F58854E57854D567549E875B8
:10047D004A03754B00754C001202A7754988754AE1
:10048D0030754B00754C00120334754964754A0084
:10049D00754B00754C001202A78548638547628530
:1004AD00466185456022855F48855E47855D468549
:1004BD005C4585634C85624B85614A8560491201B7
:1004CD00F27549E8754A03754B00754C00120334FB
:1004DD00E5459402F56422855C45855D46855E475C
:1004ED00855F4812012D22856045856146856247ED
:1004FD0085634812012D221204E4C0E0740C14121D
:10050D0000C7D0E0C000A84F1200CCD000C000A89A
:10051D004E1200CCD000221204F4C0E0740114126B
:10052D0000C5D0E0C000A84F1200CCD000C000A87C
:10053D004E1200CCD00022E564C39464401DC0E08F
:10054D007403141200C7D0E0C000A8531200CCD021
:10055D0000C000A8521200CCD00022C0E0740414D8
:10056D001200C7D0E0C0E0742012007DD0E0C000C2
:10057D00A8521200CCD00022E556C0E0740114122E
:10058D0000C7D0E0C000A8591200CCD000C000A810
:10059D00581200CCD000C000A8571200CCD000C01B
:1005AD0000A8561200CCD00022853E457546007538
:1005BD00470075480012012DC0E07401141200C5EA
:1005CD00D0E0C000A84E1200CCD000C000A84D1243
:1005DD0000CCD00022853F45754600754700754813
:1005ED000012012DC0E07407141200C5D0E0C00048
:1005FD00A84E1200CCD000C000A84D1200CCD000E7
:10060D0022C000A8531200FAD000C000A852120058
:10061D00FAD0009000E21200EF2285644575460085
:10062D0075470075480012012D854E53854D522298
:10063D001203F012042712045E1204B312062722CD
:10064D00E564994004C2018002D20122E564A93D0E
:0C065D00994004C2028004D202800022F6
:10066900E531B53B07E532B53C02C295E531B4E762
:1006790007E532B40302D29522C29522D29522759A
:100689003B2C753C0122753B58753C0222546F3D49
:10069900207878432020546A3D7878432000737885
:0F06A90078782E303020727878782E303020001C
:1006B800546F3D00432020546A3D00202020202014
:1006C8004552524F52202020202020002020202058
:1006D8002053203E205220202020202000202020AF
:1006E8002020202020202020202020202000E53F3E
:1006F800953E5005753000D20822120504120544B3
:10070800C0E07401141200C7D0E0C083C082C0E00A
:100718009006B81200BAD0E0D082D083C0E0740747
:10072800141200C7D0E0C083C082C0E09006BC129B
:1007380000BAD0E0D082D083C0E0740F141200C792
:10074800D0E0C0E0744312007DD0E01205E212054B
:10075800B6C0E07401141200C5D0E0C0E0745312B2
:10076800007DD0E0C0E07407141200C5D0E0C0E0FE
:10077800745212007DD0E0C0E07405141200C5D098
:10078800E0C0E0744312007DD0E0C0E0740B1412A6
:1007980000C5D0E0C0E0744312007DD0E0C0E07432
:1007A8000F141200C5D0E0C000A8301200CCD00051
:1007B800300E15C0E0740D141200C5D0E0C0E0740E
:1007C8005212007DD0E08013C0E0740D141200C5F1
:1007D800D0E0C0E0745312007DD0E022120504126C
:1007E8000544C0E07401141200C7D0E0C000A8306E
:1007F8001200CCD000C0E07401141200C5D0E0C0D3
:1008080000A8361200CCD000C0E07405141200C550
:10081800D0E0C000A8381200CCD00022C0E074019B
:10082800141200C7D0E0C083C082C0E09006C31293
:1008380000BAD0E0D082D083C0E07401141200C5A1
:10084800D0E0C083C082C0E09006D41200BAD0E0E5
:10085800D082D083120AADC0E07401141200C7D050
:10086800E0C083C082C0E09006E51200BAD0E0D0B4
:1008780082D083C0E07401141200C5D0E0C083C0E8
:1008880082C0E09006E51200BAD0E0D082D083C2E0
:100898000822D209D20AD20BD20CD20DD296C29318
:1008A800C280C281C282C283209638120AA02096D2
:1008B80032D293D280D281D282D283C293A296922C
:1008C80009D293C280A296920AD280C281A296923D
:1008D8000BD281C282A296920CD282C283A2969235
:1008E8000DD28322200603020968D209D20AD20B4C
:1008F800D20CD20DD296C293C280C281C282C28368
:1009080020965D120AA0209657D293D280D281D227
:1009180082D283C293A2969209D293200909E53F15
:10092800240AF53F020968C280A296920AD2802062
:100938000A09E53F2401F53F020968C281A296929F
:100948000BD281200B09E53F940AF53F020968C2E2
:1009580082A296920CD282200C06E53F9401F53FC4
:10096800222006030209E5D209D20AD20BD20CD200
:100978000DD296C293C280C281C282C28320965D84
:10098800120AA0209657D293D280D281D282D283E3
:10099800C293A2969209D293200909E53E240AF54A
:1009A8003E0209E5C280A296920AD280200A09E591
:1009B8003E2401F53E0209E5C281A296920BD2813E
:1009C800200B09E53E940AF53E0209E5C282A2968B
:1009D800920CD282200C06E53E9401F53E22753039
:1009E80000753D32753E91753FD9755A00755B00AB
:1009F800755C00755D007560007561007536007581
:100A08003800753B00753C0075350075330075344A
:100A180000C295D284D293D280C283C20EC201C2D0
:100A28000222C0E0C0D0C28C758CF0758A2CD28CA2
:100A3800B285D0D0D0E032C2CFC0E0C0D00531E519
:100A48003170020532E539B40103120669E531B4A3
:100A5800E841E532B4033CD206D20712060EE4F5AB
:100A680031F532B28CE5362401D4F536F536B53891
:100A780022E539B4011DE530B401111206593002DE
:100A880012753000753600D205020A9B753600D201
:100A9800050530D0D0D0E0327A0679C87868D8FE1B
:100AA800D9FADAF6227B027AC879C87868D8FED9EA
:100AB800FADAF6DBF222E530B40006120AFC020A82
:100AC800FBE530B40106120B1F020AFBE530B40245
:100AD80006120B38020AFBE530B40306120B3F027C
:100AE8000AFBE530B40406120B5B020AFB120B6228
:100AF800020AFB2275390012068212089A2084160F
:100B0800120AA02084103084FD75360075386005FF
:100B180030D2051206F622753901120685A93E1251
:100B2800064D20010A7536007538900530D2052229
:100B380012068875390122120685753900A93F12F7
:100B4800064D20010D753901753600753860053080
:100B5800D2052212068F75390122120682753900D4
:100B6800793C12064D30010AC20175300075360015
:100B7800D2052275AC0075AD0075B30075B400756B
:100B8800B10075B200D206D207C0E0740114120099
:100B9800C7D0E0C083C082C0E09006961200BAD0E9
:100BA800E0D082D083C0E07401141200C5D0E0C048
:100BB80083C082C0E09006A71200BAD0E0D082D0ED
:100BC800831209E679C87868D8FED9FA438E08E511
:100BD8008954F04401F589758CF0758A2CD2A9D214
:100BE8008C438E1043878075985253C4DF53890F06
:100BF800438920758DF7D28E43B38253B47D43ACBD
:100C08000253ADFD75F60043F68343E10175C80054
:100C180075CDBF75CC2843C98075CBBF75CA28E48C
:100C2800F531F532439B80D2CA2275817FD2AF124B
:100C38000B7B12008712063D1207023008031208C8
:100C480024120ABE120110C205200D05300602B298
:100C58000E300E061208EC020C65120969C206E590
:100C680030601030070D20840AC207D205753000A5
:060C78003084FD020C3D7A
:00000001FF
