:0300000002088271
:0100030032CA
:01000B0032C2
:0100130032BA
:01001B0032B2
:0100230032AA
:03002B000206C208
:10002E00C000788500D8FDD00022C000C00179281C
:10003E007868D8FED9FADAF6D001D00022D294121E
:10004E00002EC29422A2E79283A2E69282A2E592A9
:10005E0081A2E4928012004B12002EA2E39283A2A0
:10006E00E29282A2E19281A2E0928012004B22D211
:10007E0093020053C293020053C294C0027A281214
:10008E000038D0027433120082743312008274323C
:10009E001200827428120082740C120082740112F3
:1000AE000082C0027A02120038D00222E493600667
:1000BE0012007DA380F62244404480020082C0E0FC
:1000CE00E8C4540F443012007DE8540F443012003F
:0400DE007DD0E022CF
:1000E2000D0A0080003099FDC299F59922E49360CF
:1000F200061200E5A380F622C0E0E8C4540F4430A3
:100102001200E5E8540F44301200E5D0E022C000AE
:10011200A84C1200FAD000C000A84B1200FAD0007E
:10012200C000A84A1200FAD0009000E21200EF22AA
:10013200C0E0C0D0C000C001C002E4F54AF54BF5F2
:100142004CF54DF54E7A20E545A2E779047842E672
:1001520033F608D9FA7905784AE636D4F608D9F999
:10016200DAE5D002D001D000D0D0D0E022C0E0C089
:10017200D0C000C001C002E4F54AF54BF54CF54D84
:10018200F54E7A20E545A2E779047842E633F6088F
:10019200D9FA7905784AC0D0E6243320E70224D080
:1001A20020E30224FDD0D033F608D9EADAD6D00211
:1001B200D001D000D0D0D0E022C0E0C0D0C000C07A
:1001C20001C0027A207905C3784EE613C0D030E729
:1001D2000224D030E30224FDF618D0D0D9EC790401
:1001E2007845E613F618D9FADADBD002D001D0004E
:1001F200D0D0D0E022C0E0C0D0E5422546F542E5AD
:10020200433547F543E5443548F544E5453549F579
:1002120045D0D0D0E022C0E0C0D0C3E5429546F53B
:1002220042E5439547F543E5449548F544E5459550
:1002320049F545D0D0D0E022C0E0C0D0C3E5429518
:1002420046E5439547E5449548E54595499200D0F2
:10025200D0D0E022C0E0C0D0C3E5469542E5479544
:1002620043E5489544E54995459200D0D0D0E02237
:10027200C0E0C0D0C200C3E54695427014E5479580
:1002820043700EE54895447008E54995457002D2E1
:1002920000D0D0D0E02212027220000302025622C5
:1002A20012027220000302023A22C0E0C0F0C0D063
:1002B200C000C001C002C003E5428546F0A4F8A90F
:1002C200F0E5438546F0A429F9E435F0FAE54285E4
:1002D20047F0A429F9E5F03AFAE433FBE544854610
:1002E200F0A42AFAE5F03BFBE5438547F0A42AFA9D
:1002F200E5F03BFBE5428548F0A42AFAE5F03BFB3A
:10030200E5458546F0A42BFBE5448547F0A42BFB8D
:10031200E5438548F0A42BFBE5428549F0A42BFB7D
:100322008B458A4489438842D003D002D001D00051
:10033200D0D0D0F0D0E022C0E0C0D0C000C001C018
:1003420002C003C0047C20E4F8F9FAFBC3E542339F
:10035200F542E54333F543E54433F544E54533F5EA
:1003620045E833F8E933F9EA33FAEB33FBC3E895AE
:1003720046E99547EA9548EB95494013E89546F8D2
:10038200E99547F9EA9548FAEB9549FB434201DCC6
:10039200BBD004D003D002D001D000D0D0D0E02214
:1003A200C2EFD2EE30EFFDE5C2540FF8E5C3C4C090
:1003B200E0540FF9D0E054F048F82275420075433A
:1003C200007544007545007C647D321203A27549B4
:1003D20000754800894788461201F7DDEEDCEA75B0
:1003E2004688754713754800754900120339A842BB
:1003F200A9432253E8F043E8001203BD884F895015
:100402002288428943754400754500754604754744
:10041200517548007549001202AC854F4685504718
:100422007548007549001203397546A475476A7507
:1004320048007549001202182253E8F043E80112FD
:1004420003BD1204038542518543522253E8F0430F
:10045200E8071203BD1204038542538543542285E3
:100462005142855243754400754500855346855473
:10047200477548007549001201F7754664754700D3
:10048200754800754900120339854255228551424B
:10049200855243754400754500120132228555424A
:1004A2007543007544007545001201322212048F13
:1004B200C0E0740C141200C7D0E0C000A84B1200B8
:1004C200CCD0002212049FE55594644013C0E0741E
:1004D20004141200C7D0E0C000A84B1200CCD00018
:1004E200C0E07405141200C7D0E0C000A84A120090
:1004F200CCD00022853B427543007544007545000F
:10050200120132C0E07402141200C5D0E0C000A88B
:100512004B1200CCD000C000A84A1200CCD000225E
:10052200853C42754300754400754500120132C096
:10053200E0740A141200C5D0E0C000A84B1200CC2F
:10054200D000C000A84A1200CCD0002212049F1290
:0305520001102273
:10055500E531B53807E532B53902D295E531B4E76D
:1005650007E532B40302C29522D29522C2952275BF
:1005750038C875390022546F3D20787843202054BF
:100585006A3D7878432000737878782E3030207271
:080595007878782E3030200048
:10059D00C0E07401141200C7D0E0C000A8301200F2
:1005AD00CCD0001204AF1204C61205221204F6229A
:1005BD001204AF1204C6C0E07401141200C7D0E0DB
:1005CD00C000A8301200CCD000C0E074011412009D
:1005DD00C5D0E0C000A8331200CCD000C0E0740537
:1005ED00141200C5D0E0C000A8351200CCD000C058
:1005FD00E0740F141200C7D0E0200102800BC0E0A0
:10060D00743112007DD0E08009C0E0743012007D9D
:10061D00D0E0C0E07410141200C7D0E020020280B8
:10062D000AC0E0743112007DD0E022C0E0743012B7
:10063D00007DD0E02220921B1207162092153092D9
:10064D00FD309009E53B240AF53B020660E53C24AC
:10065D000AF53C20961B1207162096153096FD3094
:10066D009009E53B2401F53B02067EE53C2401F5AE
:10067D003CE53C953B5004E53CF53B22753000755F
:10068D003A32753B91753CD9754F007550007551D7
:10069D0000755200755300755400753300753500A3
:1006AD00753800753900D295D284D292D296D290F7
:1006BD00C201C20222C2CFC0E0C0D00531E5317007
:1006CD00020532E536B40103120555E531B4E834BF
:1006DD00E532B4032FE4F531F532E5332401D4F5D9
:1006ED0033F533B5351EE536B40119E530B4010FD8
:1006FD001208BF30020E75300075330002071175F8
:10070D0033000530D0D0D0E0327A0679C87868D879
:10071D00FED9FADAF622E530B400061207610207B7
:10072D0060E530B4010612077F020760E530B402C0
:10073D0006120796020760E530B403061207AC02F5
:10074D000760E530B404061207C60207601207CD34
:10075D000207602275360012056E120642208411C2
:10076D0012071620840B3084FD7533007535060590
:10077D003022753601120571A93B1208B32001080C
:10078D007533007535060530221205747536012056
:10079D00840C1207162084063084FD753600221253
:1007AD000571753600A93C1208B320010B75360191
:1007BD007533007535070530221205747536012223
:1007CD0012056E753600793C1208B3300108C2016E
:1007DD007530007533002275AC0075AD0075B30032
:1007ED0075B40075B10075B200C0E074011412004B
:1007FD00C7D0E0C083C082C0E090057B1200BAD0A4
:10080D00E0D082D083C0E07401141200C5D0E0C0E6
:10081D0083C082C0E090058C1200BAD0E0D082D0A7
:10082D008312068979C87868D8FED9FA438E1043A9
:10083D00878075985253C4DF53890F438920758D76
:10084D00F7D28E43B38253B47D43AC0253ADFD75E5
:10085D00F60043F68343E10175C80075CDBF75CC35
:10086D002843C98075CBBF75CA28E4F531F53243ED
:10087D009B80D2CA2275817FD2AF1207E412008706
:10088D0012089912059D12072302088D1203F51205
:10089D00043B12044E120461E531B40008E532B494
:1008AD00000312054E22E555994004C2018002D283
:1008BD000122E555A93A994004C2028004D2028072
:0208CD00002207
:00000001FF
