:03000000020A965B
:0100030032CA
:03000B000208AA3E
:0100130032BA
:01001B0032B2
:0100230032AA
:03002B000208BF09
:10002E00C000788500D8FDD00022C000C00179281C
:10003E007868D8FED9FADAF6D001D00022D294121E
:10004E00002EC29422A2E79283A2E69282A2E592A9
:10005E0081A2E4928012004B12002EA2E39283A2A0
:10006E00E29282A2E19281A2E0928012004B22D211
:10007E0093020053C293020053C294C0027A281214
:10008E000038D0027433120082743312008274323C
:10009E001200827428120082740C120082740112F3
:1000AE000082C0027A02120038D00222E493600667
:1000BE0012007DA380F62244404480020082C0E0FC
:1000CE00E8C4540F443012007DE8540F443012003F
:0400DE007DD0E022CF
:1000E2000D0A0080003099FDC299F59922E49360CF
:1000F200061200E5A380F622C0E0E8C4540F4430A3
:100102001200E5E8540F44301200E5D0E02220044A
:100112000302012CC20474531200E5C000A830127D
:0B01220000FAD0009000E21200EF2273
:10012D00C0E0C0D0C000C001C002E4F54DF54EF5F1
:10013D004FF550F5517A20E548A2E779047845E668
:10014D0033F608D9FA7905784DE636D4F608D9F99B
:10015D00DAE5D002D001D000D0D0D0E022C0E0C08E
:10016D00D0C000C001C002E4F54DF54EF54FF5507D
:10017D00F5517A20E548A2E779047845E633F6088B
:10018D00D9FA7905784DC0D0E6243320E70224D082
:10019D0020E30224FDD0D033F608D9EADAD6D00216
:1001AD00D001D000D0D0D0E022C0E0C0D0C000C07F
:1001BD0001C0027A207905C37851E613C0D030E72B
:1001CD000224D030E30224FDF618D0D0D9EC790406
:1001DD007848E613F618D9FADADBD002D001D00050
:1001ED00D0D0D0E022C0E0C0D0E5452549F545E5A9
:1001FD0046354AF546E547354BF547E548354CF567
:10020D0048D0D0D0E022C0E0C0D0C3E5459549F537
:10021D0045E546954AF546E547954BF547E548953D
:10022D004CF548D0D0D0E022C0E0C0D0C3E5459514
:10023D0049E546954AE547954BE548954C9200D0E2
:10024D00D0D0E022C0E0C0D0C3E5499545E54A9540
:10025D0046E54B9547E54C95489200D0D0D0E0222D
:10026D00C0E0C0D0C200C3E54995457014E54A957C
:10027D0046700EE54B95477008E54C95487002D2D7
:10028D0000D0D0D0E02212026D20000302025122D4
:10029D0012026D20000302023522C0E0C0F0C0D072
:1002AD00C000C001C002C003E5458549F0A4F8A90E
:1002BD00F0E5468549F0A429F9E435F0FAE54585E0
:1002CD004AF0A429F9E5F03AFAE433FBE54785490C
:1002DD00F0A42AFAE5F03BFBE546854AF0A42AFA9C
:1002ED00E5F03BFBE545854BF0A42AFAE5F03BFB39
:1002FD00E5488549F0A42BFBE547854AF0A42BFB87
:10030D00E546854BF0A42BFBE545854CF0A42BFB76
:10031D008B488A4789468845D003D002D001D0004A
:10032D00D0D0D0F0D0E022C0E0C0D0C000C001C01D
:10033D0002C003C0047C20E4F8F9FAFBC3E54533A1
:10034D00F545E54633F546E54733F547E54833F5DD
:10035D0048E833F8E933F9EA33FAEB33FBC3E895B0
:10036D0049E9954AEA954BEB954C4013E89549F8C8
:10037D00E9954AF9EA954BFAEB954CFB434501DCBF
:10038D00BBD004D003D002D001D000D0D0D0E02219
:10039D00C2EFD2EE30EFFDE5C2540FF8E5C3C4C095
:1003AD00E0540FF9D0E054F048F822754500754639
:1003BD00007547007548007C647D3212039D754CB5
:1003CD0000754B00894A88491201F2DDEEDCEA75B1
:1003DD004988754A13754B00754C00120334A845B6
:1003ED00A9462253E8F043E8001203B8885A895B06
:1003FD002288458946754700754800754904754A38
:10040D0051754B00754C001202A7855A49855B4A00
:10041D00754B00754C001203342253E8F043E8018C
:10042D001203B81203FE7549A4754A6A754B00751F
:10043D004C0012021375490A754A00754B00754C34
:10044D00001202A785455C85465D85475E85485F40
:10045D002253E8F043E8071203B81203FE12012DF0
:10046D00855059854F58854E57854D567549E875B8
:10047D004A03754B00754C001202A7754988754AE1
:10048D0030754B00754C00120334754964754A0084
:10049D00754B00754C001202A78548638547628530
:1004AD00466185456022855F48855E47855D468549
:1004BD005C4585634C85624B85614A8560491201B7
:1004CD00F27549E8754A03754B00754C00120334FB
:1004DD00E5459402F56422855C45855D46855E475C
:1004ED00855F4812012D22856045856146856247ED
:1004FD0085634812012D221204E4C0E0740C14121D
:10050D0000C7D0E0C000A84F1200CCD000C000A89A
:10051D004E1200CCD000221204F4C0E0740114126B
:10052D0000C5D0E0C000A84F1200CCD000C000A87C
:10053D004E1200CCD00022E564C39464401DC0E08F
:10054D007403141200C7D0E0C000A8531200CCD021
:10055D0000C000A8521200CCD00022C0E0740414D8
:10056D001200C7D0E0C0E0742012007DD0E0C000C2
:10057D00A8521200CCD00022E556C0E0740114122E
:10058D0000C7D0E0C000A8591200CCD000C000A810
:10059D00581200CCD000C000A8571200CCD000C01B
:1005AD0000A8561200CCD00022853E457546007538
:1005BD00470075480012012DC0E07401141200C5EA
:1005CD00D0E0C000A84E1200CCD000C000A84D1243
:1005DD0000CCD00022853F45754600754700754813
:1005ED000012012DC0E07409141200C5D0E0C00046
:1005FD00A84E1200CCD000C000A84D1200CCD000E7
:10060D0022C000A8531200FAD000C000A852120058
:10061D00FAD0009000E21200EF2285644575460085
:10062D0075470075480012012D854E53854D522298
:10063D001203F012042712045E1204B312062722CD
:10064D00E564994004C2018002D20122E564A93D0E
:0C065D00994004C2028004D202800022F6
:10066900E531B53B07E532B53C02C295E531B4E762
:1006790007E532B40302D29522C29522D29522759A
:060689003B2C753C012230
:10068F00C0E0740F141200C7D0E0200102800AC02E
:10069F00E0743112007DD0E022C0E0743012007D92
:1006AF00D0E022C0E07410141200C7D0E020020284
:1006BF00800AC0E0743112007DD0E022C0E07430B7
:1006CF0012007DD0E022C0E0740F141200C5D0E0FC
:1006DF00200302800AC0E0743112007DD0E022C0F6
:1006EF00E0743012007DD0E022546F3D20787843C3
:1006FF002020546A3D7878432000737878782E3024
:0B070F003020727878782E3030200007
:10071A00546F3D00432020546A3D0012050412051F
:10072A0044C0E07401141200C7D0E0C083C082C084
:10073A00E090071A1200BAD0E0D082D083C0E074E9
:10074A0007141200C7D0E0C083C082C0E090071E21
:10075A001200BAD0E0D082D083C0E0740F14120025
:10076A00C7D0E0C0E0744312007DD0E01205E21267
:10077A0005B6C0E07401141200C5D0E0C0E074737D
:10078A0012007DD0E0C0E07409141200C5D0E0C0A8
:10079A00E0747212007DD0E0C0E07405141200C546
:1007AA00D0E0C0E0744312007DD0E0C0E0740D14C4
:1007BA001200C5D0E0C0E0744312007DD0E0C0E072
:1007CA00740F141200C5D0E0C000A8301200CCD0BB
:1007DA000022120504120544C0E07401141200C775
:1007EA00D0E0C000A8301200CCD000C0E0740114E0
:1007FA001200C5D0E0C000A8361200CCD000C0E07C
:10080A007405141200C5D0E0C000A8381200CCD07C
:10081A000012068F2220921B12091C209215309278
:10082A00FD309009E53E240AF53E02083DE53F24E5
:10083A000AF53F20961B12091C2096153096FD30AA
:10084A009009E53E2401F53E02085BE53F2401F5E7
:10085A003FE53F953E5004E53FF53E227530007571
:10086A003D32753E91753FD9755A00755B00755CCE
:10087A0000755D00756000756100D20475360075FB
:10088A003800753B00753C007535007533007534CA
:10089A0000C295D284D292D296D290C201C20222CA
:1008AA00C0E0C0D0C28C758CF0758A2CD28CB2850F
:1008BA00D0D0D0E032C2CFC0E0C0D00531E531702F
:1008CA00020532E539B40103120669E531B4E83D9F
:1008DA00E532B4033812060EE4F531F532B28CE58E
:1008EA00362401D4F536F536B53822E539B4011D7A
:1008FA00E530B4011112065930021275300075360E
:10090A0000D204020917753600D2040530D0D0D0BF
:10091A00E0327A0679C87868D8FED9FADAF622E59A
:10092A0030B40006120967020966E530B4010612FE
:10093A000987020966E530B402061209A0020966AF
:10094A00E530B403061209A7020966E530B40406C5
:10095A001209C30209661209CA0209662275390018
:10096A0012068212081F20841312091C20840D30DB
:10097A0084FD7536007538600530D2042275390158
:10098A00120685A93E12064D20010A7536007538F1
:10099A00900530D204221206887539012212068582
:1009AA00753900A93F12064D20010D7539017536BA
:1009BA00007538600530D204221206887539012282
:1009CA00120682753900793C12064D30010AC201BD
:1009DA00753000753600D2042275AC0075AD00750D
:1009EA00B30075B40075B10075B200C0E0740114AB
:1009FA001200C7D0E0C083C082C0E09006F812009F
:100A0A00BAD0E0D082D083C0E07401141200C5D0FD
:100A1A00E0C083C082C0E09007091200BAD0E0D0DB
:100A2A0082D08312086679C87868D8FED9FA438ECC
:100A3A0008E58954F04401F589758CF0758A2CD241
:100A4A00A9D28C438E1043878075985253C4DF53C2
:100A5A00890F438920758DF7D28E43B38253B47DB3
:100A6A0043AC0253ADFD75F60043F68343E10175CD
:100A7A00C80075CDBF75CC2843C98075CBBF75CA70
:100A8A0028E4F531F532439B80D2CA2275817FD2A0
:100A9A00AF1209E312008712063D1207251209292F
:080AAA00120110C204020AA1AE
:00000001FF
