:0300000002029267
:0100030032CA
:01000B0032C2
:0100130032BA
:01001B0032B2
:0100230032AA
:03002B00020129A6
:10002E00C000788500D8FDD00022C000C00179281C
:10003E007868D8FED9FADAF6D001D00022D294121E
:10004E00002EC29422A2E79283A2E69282A2E592A9
:10005E0081A2E4928012004B12002EA2E39283A2A0
:10006E00E29282A2E19281A2E0928012004B22D211
:10007E0093020053C293020053C294C0027A281214
:10008E000038D0027433120082743312008274323C
:10009E001200827428120082740C120082740112F3
:1000AE000082C0027A02120038D00222E493600667
:1000BE0012007DA380F62244404480020082C0E0FC
:1000CE00E8C4540F443012007DE8540F443012003F
:1000DE007DD0E02275380022E530B53807E531B520
:1000EE003902C295E530B4E707E531B40302D29583
:1000FE0022C295227538C875390022D2952275C84C
:10010E000075CDBF75CC2843C98075CBBF75CA2885
:10011E00E4F530F531439B80D2CA22C2CFC0E0C095
:10012E00D00530E53070020531E536B4010312001A
:10013E00E6E530B4E82EE531B40329E4F530F531C7
:10014E00E5322401D4F532F532B53518E536B40171
:10015E0013E533B40109753300753200020172756F
:10016E0032000533D0D0D0E032C0E0740514120056
:10017E00C5D0E0C000A8351200CCD000C0E074019C
:10018E00141200C5D0E0C000A8321200CCD000C0BE
:10019E00E07401141200C7D0E0C000A8331200CCE6
:1001AE00D000227A0A79C87868D8FED9FADAF6220F
:1001BE00E533B400061201F90201F8E533B4010685
:1001CE001202140201F8E533B4020612022F0201E4
:1001DE00F8E533B403061202450201F8E533B40420
:1001EE00061202630201F81202792275360012001D
:1001FE00FF2097111201B120970B3097FD75320039
:10020E0075356005332275360112010920971112DA
:10021E0001B120970B3097FD753200753506053309
:10022E002212010275360120970C1201B120970699
:10023E003097FD753600221201097536002097148D
:10024E001201B120970E3097FD753601753200758B
:10025E00350705332212010275360120970C120163
:10026E00B12097063097FD753200221200FF7536C9
:10027E000020970F1201B12097093097FD753300BA
:10028E007532002275817F75B10075B20075B300AD
:10029E0075B40075AD0075AD00753200753300751F
:1002AE0035001200871200E212010CD2AF12017754
:0602BE001201BE0202BBAA
:00000001FF
